{
	"contracts/library.sol": {
		"exp": {
			"abi": [
				{
					"inputs": [
						{
							"internalType": "uint256",
							"name": "",
							"type": "uint256"
						}
					],
					"name": "arr",
					"outputs": [
						{
							"internalType": "uint256",
							"name": "",
							"type": "uint256"
						}
					],
					"stateMutability": "view",
					"type": "function"
				},
				{
					"inputs": [],
					"name": "getLibAddr",
					"outputs": [
						{
							"internalType": "address",
							"name": "",
							"type": "address"
						}
					],
					"stateMutability": "pure",
					"type": "function"
				},
				{
					"inputs": [],
					"name": "getReverse",
					"outputs": [
						{
							"internalType": "uint256[]",
							"name": "",
							"type": "uint256[]"
						}
					],
					"stateMutability": "view",
					"type": "function"
				},
				{
					"inputs": [
						{
							"internalType": "uint256",
							"name": "_num",
							"type": "uint256"
						}
					],
					"name": "insert",
					"outputs": [],
					"stateMutability": "nonpayable",
					"type": "function"
				}
			],
			"devdoc": {
				"kind": "dev",
				"methods": {},
				"version": 1
			},
			"evm": {
				"assembly": "    /* \"contracts/library.sol\":531:897  contract exp{... */\n  mstore(0x40, 0x80)\n    /* \"contracts/library.sol\":550:579  uint[] public arr = [1,2,3,4] */\n  mload(0x40)\n  dup1\n  0x80\n  add\n  0x40\n  mstore\n  dup1\n    /* \"contracts/library.sol\":571:572  1 */\n  0x01\n    /* \"contracts/library.sol\":550:579  uint[] public arr = [1,2,3,4] */\n  0xff\n  and\n  dup2\n  mstore\n  0x20\n  add\n    /* \"contracts/library.sol\":573:574  2 */\n  0x02\n    /* \"contracts/library.sol\":550:579  uint[] public arr = [1,2,3,4] */\n  0xff\n  and\n  dup2\n  mstore\n  0x20\n  add\n    /* \"contracts/library.sol\":575:576  3 */\n  0x03\n    /* \"contracts/library.sol\":550:579  uint[] public arr = [1,2,3,4] */\n  0xff\n  and\n  dup2\n  mstore\n  0x20\n  add\n    /* \"contracts/library.sol\":577:578  4 */\n  0x04\n    /* \"contracts/library.sol\":550:579  uint[] public arr = [1,2,3,4] */\n  0xff\n  and\n  dup2\n  mstore\n  pop\n  0x00\n  swap1\n  0x04\n  tag_1\n  swap3\n  swap2\n  swap1\n  tag_2\n  jump\t// in\ntag_1:\n  pop\n    /* \"contracts/library.sol\":531:897  contract exp{... */\n  callvalue\n  dup1\n  iszero\n  tag_3\n  jumpi\n  0x00\n  dup1\n  revert\ntag_3:\n  pop\n  jump(tag_4)\ntag_2:\n  dup3\n  dup1\n  sload\n  dup3\n  dup3\n  sstore\n  swap1\n  0x00\n  mstore\n  keccak256(0x00, 0x20)\n  swap1\n  dup2\n  add\n  swap3\n  dup3\n  iszero\n  tag_5\n  jumpi\n  swap2\n  0x20\n  mul\n  dup3\n  add\ntag_6:\n  dup3\n  dup2\n  gt\n  iszero\n  tag_7\n  jumpi\n  dup3\n  mload\n  dup3\n  swap1\n  0xff\n  and\n  swap1\n  sstore\n  swap2\n  0x20\n  add\n  swap2\n  swap1\n  0x01\n  add\n  swap1\n  jump(tag_6)\ntag_7:\ntag_5:\n  pop\n  swap1\n  pop\n  tag_8\n  swap2\n  swap1\n  tag_9\n  jump\t// in\ntag_8:\n  pop\n  swap1\n  jump\t// out\ntag_9:\ntag_10:\n  dup1\n  dup3\n  gt\n  iszero\n  tag_11\n  jumpi\n  0x00\n  dup2\n  0x00\n  swap1\n  sstore\n  pop\n  0x01\n  add\n  jump(tag_10)\ntag_11:\n  pop\n  swap1\n  jump\t// out\ntag_4:\n  dataSize(sub_0)\n  dup1\n  dataOffset(sub_0)\n  0x00\n  codecopy\n  0x00\n  return\nstop\n\nsub_0: assembly {\n        /* \"contracts/library.sol\":531:897  contract exp{... */\n      mstore(0x40, 0x80)\n      callvalue\n      dup1\n      iszero\n      tag_1\n      jumpi\n      0x00\n      dup1\n      revert\n    tag_1:\n      pop\n      jumpi(tag_2, lt(calldatasize, 0x04))\n      shr(0xe0, calldataload(0x00))\n      dup1\n      0x71e5ee5f\n      eq\n      tag_3\n      jumpi\n      dup1\n      0x8516733a\n      eq\n      tag_4\n      jumpi\n      dup1\n      0x90b5561d\n      eq\n      tag_5\n      jumpi\n      dup1\n      0xa76fc7e6\n      eq\n      tag_6\n      jumpi\n    tag_2:\n      0x00\n      dup1\n      revert\n        /* \"contracts/library.sol\":550:579  uint[] public arr = [1,2,3,4] */\n    tag_3:\n      tag_7\n      0x04\n      dup1\n      calldatasize\n      sub\n      dup2\n      add\n      swap1\n      tag_8\n      swap2\n      swap1\n      tag_9\n      jump\t// in\n    tag_8:\n      tag_10\n      jump\t// in\n    tag_7:\n      mload(0x40)\n      tag_11\n      swap2\n      swap1\n      tag_12\n      jump\t// in\n    tag_11:\n      mload(0x40)\n      dup1\n      swap2\n      sub\n      swap1\n      return\n        /* \"contracts/library.sol\":800:894  function getLibAddr() public pure returns (address){... */\n    tag_4:\n      tag_13\n      tag_14\n      jump\t// in\n    tag_13:\n      mload(0x40)\n      tag_15\n      swap2\n      swap1\n      tag_16\n      jump\t// in\n    tag_15:\n      mload(0x40)\n      dup1\n      swap2\n      sub\n      swap1\n      return\n        /* \"contracts/library.sol\":704:792  function insert(uint _num) public {... */\n    tag_5:\n      tag_17\n      0x04\n      dup1\n      calldatasize\n      sub\n      dup2\n      add\n      swap1\n      tag_18\n      swap2\n      swap1\n      tag_9\n      jump\t// in\n    tag_18:\n      tag_19\n      jump\t// in\n    tag_17:\n      stop\n        /* \"contracts/library.sol\":588:692  function getReverse() public view returns (uint[] memory){... */\n    tag_6:\n      tag_20\n      tag_21\n      jump\t// in\n    tag_20:\n      mload(0x40)\n      tag_22\n      swap2\n      swap1\n      tag_23\n      jump\t// in\n    tag_22:\n      mload(0x40)\n      dup1\n      swap2\n      sub\n      swap1\n      return\n        /* \"contracts/library.sol\":550:579  uint[] public arr = [1,2,3,4] */\n    tag_10:\n      0x00\n      dup2\n      dup2\n      sload\n      dup2\n      lt\n      tag_24\n      jumpi\n      0x00\n      dup1\n      revert\n    tag_24:\n      swap1\n      0x00\n      mstore\n      keccak256(0x00, 0x20)\n      add\n      0x00\n      swap2\n      pop\n      swap1\n      pop\n      sload\n      dup2\n      jump\t// out\n        /* \"contracts/library.sol\":800:894  function getLibAddr() public pure returns (address){... */\n    tag_14:\n        /* \"contracts/library.sol\":843:850  address */\n      0x00\n        /* \"contracts/library.sol\":869:886  address(ArrayLib) */\n      linkerSymbol(\"ad4c226fb60524bcac255ba4645dc222f7383cbac74b19c3793b47433116936c\")\n        /* \"contracts/library.sol\":862:886  return address(ArrayLib) */\n      swap1\n      pop\n        /* \"contracts/library.sol\":800:894  function getLibAddr() public pure returns (address){... */\n      swap1\n      jump\t// out\n        /* \"contracts/library.sol\":704:792  function insert(uint _num) public {... */\n    tag_19:\n        /* \"contracts/library.sol\":756:764  ArrayLib */\n      linkerSymbol(\"ad4c226fb60524bcac255ba4645dc222f7383cbac74b19c3793b47433116936c\")\n        /* \"contracts/library.sol\":756:774  ArrayLib.insertArr */\n      0x97a50068\n        /* \"contracts/library.sol\":775:778  arr */\n      0x00\n        /* \"contracts/library.sol\":779:783  _num */\n      dup4\n        /* \"contracts/library.sol\":756:784  ArrayLib.insertArr(arr,_num) */\n      mload(0x40)\n      dup4\n      0xffffffff\n      and\n      0xe0\n      shl\n      dup2\n      mstore\n      0x04\n      add\n      tag_28\n      swap3\n      swap2\n      swap1\n      tag_29\n      jump\t// in\n    tag_28:\n      0x00\n      mload(0x40)\n      dup1\n      dup4\n      sub\n      dup2\n      dup7\n      dup1\n      extcodesize\n      iszero\n      dup1\n      iszero\n      tag_30\n      jumpi\n      0x00\n      dup1\n      revert\n    tag_30:\n      pop\n      gas\n      delegatecall\n      iszero\n      dup1\n      iszero\n      tag_32\n      jumpi\n      returndatasize\n      0x00\n      dup1\n      returndatacopy\n      revert(0x00, returndatasize)\n    tag_32:\n      pop\n      pop\n      pop\n      pop\n        /* \"contracts/library.sol\":704:792  function insert(uint _num) public {... */\n      pop\n      jump\t// out\n        /* \"contracts/library.sol\":588:692  function getReverse() public view returns (uint[] memory){... */\n    tag_21:\n        /* \"contracts/library.sol\":631:644  uint[] memory */\n      0x60\n        /* \"contracts/library.sol\":663:671  ArrayLib */\n      linkerSymbol(\"ad4c226fb60524bcac255ba4645dc222f7383cbac74b19c3793b47433116936c\")\n        /* \"contracts/library.sol\":663:679  ArrayLib.reverse */\n      0xd651caeb\n        /* \"contracts/library.sol\":680:683  arr */\n      0x00\n        /* \"contracts/library.sol\":663:684  ArrayLib.reverse(arr) */\n      mload(0x40)\n      dup3\n      0xffffffff\n      and\n      0xe0\n      shl\n      dup2\n      mstore\n      0x04\n      add\n      tag_34\n      swap2\n      swap1\n      tag_35\n      jump\t// in\n    tag_34:\n      0x00\n      mload(0x40)\n      dup1\n      dup4\n      sub\n      dup2\n      dup7\n      gas\n      delegatecall\n      iszero\n      dup1\n      iszero\n      tag_37\n      jumpi\n      returndatasize\n      0x00\n      dup1\n      returndatacopy\n      revert(0x00, returndatasize)\n    tag_37:\n      pop\n      pop\n      pop\n      pop\n      mload(0x40)\n      returndatasize\n      0x00\n      dup3\n      returndatacopy\n      returndatasize\n      not(0x1f)\n      0x1f\n      dup3\n      add\n      and\n      dup3\n      add\n      dup1\n      0x40\n      mstore\n      pop\n      dup2\n      add\n      swap1\n      tag_38\n      swap2\n      swap1\n      tag_39\n      jump\t// in\n    tag_38:\n        /* \"contracts/library.sol\":656:684  return ArrayLib.reverse(arr) */\n      swap1\n      pop\n        /* \"contracts/library.sol\":588:692  function getReverse() public view returns (uint[] memory){... */\n      swap1\n      jump\t// out\n        /* \"#utility.yul\":7:82   */\n    tag_40:\n        /* \"#utility.yul\":40:46   */\n      0x00\n        /* \"#utility.yul\":73:75   */\n      0x40\n        /* \"#utility.yul\":67:76   */\n      mload\n        /* \"#utility.yul\":57:76   */\n      swap1\n      pop\n        /* \"#utility.yul\":7:82   */\n      swap1\n      jump\t// out\n        /* \"#utility.yul\":88:205   */\n    tag_41:\n        /* \"#utility.yul\":197:198   */\n      0x00\n        /* \"#utility.yul\":194:195   */\n      dup1\n        /* \"#utility.yul\":187:199   */\n      revert\n        /* \"#utility.yul\":211:328   */\n    tag_42:\n        /* \"#utility.yul\":320:321   */\n      0x00\n        /* \"#utility.yul\":317:318   */\n      dup1\n        /* \"#utility.yul\":310:322   */\n      revert\n        /* \"#utility.yul\":334:411   */\n    tag_43:\n        /* \"#utility.yul\":371:378   */\n      0x00\n        /* \"#utility.yul\":400:405   */\n      dup2\n        /* \"#utility.yul\":389:405   */\n      swap1\n      pop\n        /* \"#utility.yul\":334:411   */\n      swap2\n      swap1\n      pop\n      jump\t// out\n        /* \"#utility.yul\":417:539   */\n    tag_44:\n        /* \"#utility.yul\":490:514   */\n      tag_75\n        /* \"#utility.yul\":508:513   */\n      dup2\n        /* \"#utility.yul\":490:514   */\n      tag_43\n      jump\t// in\n    tag_75:\n        /* \"#utility.yul\":483:488   */\n      dup2\n        /* \"#utility.yul\":480:515   */\n      eq\n        /* \"#utility.yul\":470:533   */\n      tag_76\n      jumpi\n        /* \"#utility.yul\":529:530   */\n      0x00\n        /* \"#utility.yul\":526:527   */\n      dup1\n        /* \"#utility.yul\":519:531   */\n      revert\n        /* \"#utility.yul\":470:533   */\n    tag_76:\n        /* \"#utility.yul\":417:539   */\n      pop\n      jump\t// out\n        /* \"#utility.yul\":545:684   */\n    tag_45:\n        /* \"#utility.yul\":591:596   */\n      0x00\n        /* \"#utility.yul\":629:635   */\n      dup2\n        /* \"#utility.yul\":616:636   */\n      calldataload\n        /* \"#utility.yul\":607:636   */\n      swap1\n      pop\n        /* \"#utility.yul\":645:678   */\n      tag_78\n        /* \"#utility.yul\":672:677   */\n      dup2\n        /* \"#utility.yul\":645:678   */\n      tag_44\n      jump\t// in\n    tag_78:\n        /* \"#utility.yul\":545:684   */\n      swap3\n      swap2\n      pop\n      pop\n      jump\t// out\n        /* \"#utility.yul\":690:1019   */\n    tag_9:\n        /* \"#utility.yul\":749:755   */\n      0x00\n        /* \"#utility.yul\":798:800   */\n      0x20\n        /* \"#utility.yul\":786:795   */\n      dup3\n        /* \"#utility.yul\":777:784   */\n      dup5\n        /* \"#utility.yul\":773:796   */\n      sub\n        /* \"#utility.yul\":769:801   */\n      slt\n        /* \"#utility.yul\":766:885   */\n      iszero\n      tag_80\n      jumpi\n        /* \"#utility.yul\":804:883   */\n      tag_81\n      tag_41\n      jump\t// in\n    tag_81:\n        /* \"#utility.yul\":766:885   */\n    tag_80:\n        /* \"#utility.yul\":924:925   */\n      0x00\n        /* \"#utility.yul\":949:1002   */\n      tag_82\n        /* \"#utility.yul\":994:1001   */\n      dup5\n        /* \"#utility.yul\":985:991   */\n      dup3\n        /* \"#utility.yul\":974:983   */\n      dup6\n        /* \"#utility.yul\":970:992   */\n      add\n        /* \"#utility.yul\":949:1002   */\n      tag_45\n      jump\t// in\n    tag_82:\n        /* \"#utility.yul\":939:1002   */\n      swap2\n      pop\n        /* \"#utility.yul\":895:1012   */\n      pop\n        /* \"#utility.yul\":690:1019   */\n      swap3\n      swap2\n      pop\n      pop\n      jump\t// out\n        /* \"#utility.yul\":1025:1143   */\n    tag_46:\n        /* \"#utility.yul\":1112:1136   */\n      tag_84\n        /* \"#utility.yul\":1130:1135   */\n      dup2\n        /* \"#utility.yul\":1112:1136   */\n      tag_43\n      jump\t// in\n    tag_84:\n        /* \"#utility.yul\":1107:1110   */\n      dup3\n        /* \"#utility.yul\":1100:1137   */\n      mstore\n        /* \"#utility.yul\":1025:1143   */\n      pop\n      pop\n      jump\t// out\n        /* \"#utility.yul\":1149:1371   */\n    tag_12:\n        /* \"#utility.yul\":1242:1246   */\n      0x00\n        /* \"#utility.yul\":1280:1282   */\n      0x20\n        /* \"#utility.yul\":1269:1278   */\n      dup3\n        /* \"#utility.yul\":1265:1283   */\n      add\n        /* \"#utility.yul\":1257:1283   */\n      swap1\n      pop\n        /* \"#utility.yul\":1293:1364   */\n      tag_86\n        /* \"#utility.yul\":1361:1362   */\n      0x00\n        /* \"#utility.yul\":1350:1359   */\n      dup4\n        /* \"#utility.yul\":1346:1363   */\n      add\n        /* \"#utility.yul\":1337:1343   */\n      dup5\n        /* \"#utility.yul\":1293:1364   */\n      tag_46\n      jump\t// in\n    tag_86:\n        /* \"#utility.yul\":1149:1371   */\n      swap3\n      swap2\n      pop\n      pop\n      jump\t// out\n        /* \"#utility.yul\":1377:1503   */\n    tag_47:\n        /* \"#utility.yul\":1414:1421   */\n      0x00\n        /* \"#utility.yul\":1454:1496   */\n      0xffffffffffffffffffffffffffffffffffffffff\n        /* \"#utility.yul\":1447:1452   */\n      dup3\n        /* \"#utility.yul\":1443:1497   */\n      and\n        /* \"#utility.yul\":1432:1497   */\n      swap1\n      pop\n        /* \"#utility.yul\":1377:1503   */\n      swap2\n      swap1\n      pop\n      jump\t// out\n        /* \"#utility.yul\":1509:1605   */\n    tag_48:\n        /* \"#utility.yul\":1546:1553   */\n      0x00\n        /* \"#utility.yul\":1575:1599   */\n      tag_89\n        /* \"#utility.yul\":1593:1598   */\n      dup3\n        /* \"#utility.yul\":1575:1599   */\n      tag_47\n      jump\t// in\n    tag_89:\n        /* \"#utility.yul\":1564:1599   */\n      swap1\n      pop\n        /* \"#utility.yul\":1509:1605   */\n      swap2\n      swap1\n      pop\n      jump\t// out\n        /* \"#utility.yul\":1611:1729   */\n    tag_49:\n        /* \"#utility.yul\":1698:1722   */\n      tag_91\n        /* \"#utility.yul\":1716:1721   */\n      dup2\n        /* \"#utility.yul\":1698:1722   */\n      tag_48\n      jump\t// in\n    tag_91:\n        /* \"#utility.yul\":1693:1696   */\n      dup3\n        /* \"#utility.yul\":1686:1723   */\n      mstore\n        /* \"#utility.yul\":1611:1729   */\n      pop\n      pop\n      jump\t// out\n        /* \"#utility.yul\":1735:1957   */\n    tag_16:\n        /* \"#utility.yul\":1828:1832   */\n      0x00\n        /* \"#utility.yul\":1866:1868   */\n      0x20\n        /* \"#utility.yul\":1855:1864   */\n      dup3\n        /* \"#utility.yul\":1851:1869   */\n      add\n        /* \"#utility.yul\":1843:1869   */\n      swap1\n      pop\n        /* \"#utility.yul\":1879:1950   */\n      tag_93\n        /* \"#utility.yul\":1947:1948   */\n      0x00\n        /* \"#utility.yul\":1936:1945   */\n      dup4\n        /* \"#utility.yul\":1932:1949   */\n      add\n        /* \"#utility.yul\":1923:1929   */\n      dup5\n        /* \"#utility.yul\":1879:1950   */\n      tag_49\n      jump\t// in\n    tag_93:\n        /* \"#utility.yul\":1735:1957   */\n      swap3\n      swap2\n      pop\n      pop\n      jump\t// out\n        /* \"#utility.yul\":1963:2077   */\n    tag_50:\n        /* \"#utility.yul\":2030:2036   */\n      0x00\n        /* \"#utility.yul\":2064:2069   */\n      dup2\n        /* \"#utility.yul\":2058:2070   */\n      mload\n        /* \"#utility.yul\":2048:2070   */\n      swap1\n      pop\n        /* \"#utility.yul\":1963:2077   */\n      swap2\n      swap1\n      pop\n      jump\t// out\n        /* \"#utility.yul\":2083:2267   */\n    tag_51:\n        /* \"#utility.yul\":2182:2193   */\n      0x00\n        /* \"#utility.yul\":2216:2222   */\n      dup3\n        /* \"#utility.yul\":2211:2214   */\n      dup3\n        /* \"#utility.yul\":2204:2223   */\n      mstore\n        /* \"#utility.yul\":2256:2260   */\n      0x20\n        /* \"#utility.yul\":2251:2254   */\n      dup3\n        /* \"#utility.yul\":2247:2261   */\n      add\n        /* \"#utility.yul\":2232:2261   */\n      swap1\n      pop\n        /* \"#utility.yul\":2083:2267   */\n      swap3\n      swap2\n      pop\n      pop\n      jump\t// out\n        /* \"#utility.yul\":2273:2405   */\n    tag_52:\n        /* \"#utility.yul\":2340:2344   */\n      0x00\n        /* \"#utility.yul\":2363:2366   */\n      dup2\n        /* \"#utility.yul\":2355:2366   */\n      swap1\n      pop\n        /* \"#utility.yul\":2393:2397   */\n      0x20\n        /* \"#utility.yul\":2388:2391   */\n      dup3\n        /* \"#utility.yul\":2384:2398   */\n      add\n        /* \"#utility.yul\":2376:2398   */\n      swap1\n      pop\n        /* \"#utility.yul\":2273:2405   */\n      swap2\n      swap1\n      pop\n      jump\t// out\n        /* \"#utility.yul\":2411:2519   */\n    tag_53:\n        /* \"#utility.yul\":2488:2512   */\n      tag_98\n        /* \"#utility.yul\":2506:2511   */\n      dup2\n        /* \"#utility.yul\":2488:2512   */\n      tag_43\n      jump\t// in\n    tag_98:\n        /* \"#utility.yul\":2483:2486   */\n      dup3\n        /* \"#utility.yul\":2476:2513   */\n      mstore\n        /* \"#utility.yul\":2411:2519   */\n      pop\n      pop\n      jump\t// out\n        /* \"#utility.yul\":2525:2704   */\n    tag_54:\n        /* \"#utility.yul\":2594:2604   */\n      0x00\n        /* \"#utility.yul\":2615:2661   */\n      tag_100\n        /* \"#utility.yul\":2657:2660   */\n      dup4\n        /* \"#utility.yul\":2649:2655   */\n      dup4\n        /* \"#utility.yul\":2615:2661   */\n      tag_53\n      jump\t// in\n    tag_100:\n        /* \"#utility.yul\":2693:2697   */\n      0x20\n        /* \"#utility.yul\":2688:2691   */\n      dup4\n        /* \"#utility.yul\":2684:2698   */\n      add\n        /* \"#utility.yul\":2670:2698   */\n      swap1\n      pop\n        /* \"#utility.yul\":2525:2704   */\n      swap3\n      swap2\n      pop\n      pop\n      jump\t// out\n        /* \"#utility.yul\":2710:2823   */\n    tag_55:\n        /* \"#utility.yul\":2780:2784   */\n      0x00\n        /* \"#utility.yul\":2812:2816   */\n      0x20\n        /* \"#utility.yul\":2807:2810   */\n      dup3\n        /* \"#utility.yul\":2803:2817   */\n      add\n        /* \"#utility.yul\":2795:2817   */\n      swap1\n      pop\n        /* \"#utility.yul\":2710:2823   */\n      swap2\n      swap1\n      pop\n      jump\t// out\n        /* \"#utility.yul\":2859:3591   */\n    tag_56:\n        /* \"#utility.yul\":2978:2981   */\n      0x00\n        /* \"#utility.yul\":3007:3061   */\n      tag_103\n        /* \"#utility.yul\":3055:3060   */\n      dup3\n        /* \"#utility.yul\":3007:3061   */\n      tag_50\n      jump\t// in\n    tag_103:\n        /* \"#utility.yul\":3077:3163   */\n      tag_104\n        /* \"#utility.yul\":3156:3162   */\n      dup2\n        /* \"#utility.yul\":3151:3154   */\n      dup6\n        /* \"#utility.yul\":3077:3163   */\n      tag_51\n      jump\t// in\n    tag_104:\n        /* \"#utility.yul\":3070:3163   */\n      swap4\n      pop\n        /* \"#utility.yul\":3187:3243   */\n      tag_105\n        /* \"#utility.yul\":3237:3242   */\n      dup4\n        /* \"#utility.yul\":3187:3243   */\n      tag_52\n      jump\t// in\n    tag_105:\n        /* \"#utility.yul\":3266:3273   */\n      dup1\n        /* \"#utility.yul\":3297:3298   */\n      0x00\n        /* \"#utility.yul\":3282:3566   */\n    tag_106:\n        /* \"#utility.yul\":3307:3313   */\n      dup4\n        /* \"#utility.yul\":3304:3305   */\n      dup2\n        /* \"#utility.yul\":3301:3314   */\n      lt\n        /* \"#utility.yul\":3282:3566   */\n      iszero\n      tag_108\n      jumpi\n        /* \"#utility.yul\":3383:3389   */\n      dup2\n        /* \"#utility.yul\":3377:3390   */\n      mload\n        /* \"#utility.yul\":3410:3473   */\n      tag_109\n        /* \"#utility.yul\":3469:3472   */\n      dup9\n        /* \"#utility.yul\":3454:3467   */\n      dup3\n        /* \"#utility.yul\":3410:3473   */\n      tag_54\n      jump\t// in\n    tag_109:\n        /* \"#utility.yul\":3403:3473   */\n      swap8\n      pop\n        /* \"#utility.yul\":3496:3556   */\n      tag_110\n        /* \"#utility.yul\":3549:3555   */\n      dup4\n        /* \"#utility.yul\":3496:3556   */\n      tag_55\n      jump\t// in\n    tag_110:\n        /* \"#utility.yul\":3486:3556   */\n      swap3\n      pop\n        /* \"#utility.yul\":3342:3566   */\n      pop\n        /* \"#utility.yul\":3329:3330   */\n      0x01\n        /* \"#utility.yul\":3326:3327   */\n      dup2\n        /* \"#utility.yul\":3322:3331   */\n      add\n        /* \"#utility.yul\":3317:3331   */\n      swap1\n      pop\n        /* \"#utility.yul\":3282:3566   */\n      jump(tag_106)\n    tag_108:\n        /* \"#utility.yul\":3286:3300   */\n      pop\n        /* \"#utility.yul\":3582:3585   */\n      dup6\n        /* \"#utility.yul\":3575:3585   */\n      swap4\n      pop\n        /* \"#utility.yul\":2983:3591   */\n      pop\n      pop\n      pop\n        /* \"#utility.yul\":2859:3591   */\n      swap3\n      swap2\n      pop\n      pop\n      jump\t// out\n        /* \"#utility.yul\":3597:3970   */\n    tag_23:\n        /* \"#utility.yul\":3740:3744   */\n      0x00\n        /* \"#utility.yul\":3778:3780   */\n      0x20\n        /* \"#utility.yul\":3767:3776   */\n      dup3\n        /* \"#utility.yul\":3763:3781   */\n      add\n        /* \"#utility.yul\":3755:3781   */\n      swap1\n      pop\n        /* \"#utility.yul\":3827:3836   */\n      dup2\n        /* \"#utility.yul\":3821:3825   */\n      dup2\n        /* \"#utility.yul\":3817:3837   */\n      sub\n        /* \"#utility.yul\":3813:3814   */\n      0x00\n        /* \"#utility.yul\":3802:3811   */\n      dup4\n        /* \"#utility.yul\":3798:3815   */\n      add\n        /* \"#utility.yul\":3791:3838   */\n      mstore\n        /* \"#utility.yul\":3855:3963   */\n      tag_112\n        /* \"#utility.yul\":3958:3962   */\n      dup2\n        /* \"#utility.yul\":3949:3955   */\n      dup5\n        /* \"#utility.yul\":3855:3963   */\n      tag_56\n      jump\t// in\n    tag_112:\n        /* \"#utility.yul\":3847:3963   */\n      swap1\n      pop\n        /* \"#utility.yul\":3597:3970   */\n      swap3\n      swap2\n      pop\n      pop\n      jump\t// out\n        /* \"#utility.yul\":3976:4105   */\n    tag_57:\n        /* \"#utility.yul\":4093:4098   */\n      dup1\n        /* \"#utility.yul\":4088:4091   */\n      dup3\n        /* \"#utility.yul\":4081:4099   */\n      mstore\n        /* \"#utility.yul\":3976:4105   */\n      pop\n      pop\n      jump\t// out\n        /* \"#utility.yul\":4111:4237   */\n    tag_58:\n        /* \"#utility.yul\":4206:4230   */\n      tag_115\n        /* \"#utility.yul\":4224:4229   */\n      dup2\n        /* \"#utility.yul\":4206:4230   */\n      tag_43\n      jump\t// in\n    tag_115:\n        /* \"#utility.yul\":4201:4204   */\n      dup3\n        /* \"#utility.yul\":4194:4231   */\n      mstore\n        /* \"#utility.yul\":4111:4237   */\n      pop\n      pop\n      jump\t// out\n        /* \"#utility.yul\":4243:4643   */\n    tag_29:\n        /* \"#utility.yul\":4394:4398   */\n      0x00\n        /* \"#utility.yul\":4432:4434   */\n      0x40\n        /* \"#utility.yul\":4421:4430   */\n      dup3\n        /* \"#utility.yul\":4417:4435   */\n      add\n        /* \"#utility.yul\":4409:4435   */\n      swap1\n      pop\n        /* \"#utility.yul\":4445:4546   */\n      tag_117\n        /* \"#utility.yul\":4543:4544   */\n      0x00\n        /* \"#utility.yul\":4532:4541   */\n      dup4\n        /* \"#utility.yul\":4528:4545   */\n      add\n        /* \"#utility.yul\":4519:4525   */\n      dup6\n        /* \"#utility.yul\":4445:4546   */\n      tag_57\n      jump\t// in\n    tag_117:\n        /* \"#utility.yul\":4556:4636   */\n      tag_118\n        /* \"#utility.yul\":4632:4634   */\n      0x20\n        /* \"#utility.yul\":4621:4630   */\n      dup4\n        /* \"#utility.yul\":4617:4635   */\n      add\n        /* \"#utility.yul\":4608:4614   */\n      dup5\n        /* \"#utility.yul\":4556:4636   */\n      tag_58\n      jump\t// in\n    tag_118:\n        /* \"#utility.yul\":4243:4643   */\n      swap4\n      swap3\n      pop\n      pop\n      pop\n      jump\t// out\n        /* \"#utility.yul\":4649:4931   */\n    tag_35:\n        /* \"#utility.yul\":4772:4776   */\n      0x00\n        /* \"#utility.yul\":4810:4812   */\n      0x20\n        /* \"#utility.yul\":4799:4808   */\n      dup3\n        /* \"#utility.yul\":4795:4813   */\n      add\n        /* \"#utility.yul\":4787:4813   */\n      swap1\n      pop\n        /* \"#utility.yul\":4823:4924   */\n      tag_120\n        /* \"#utility.yul\":4921:4922   */\n      0x00\n        /* \"#utility.yul\":4910:4919   */\n      dup4\n        /* \"#utility.yul\":4906:4923   */\n      add\n        /* \"#utility.yul\":4897:4903   */\n      dup5\n        /* \"#utility.yul\":4823:4924   */\n      tag_57\n      jump\t// in\n    tag_120:\n        /* \"#utility.yul\":4649:4931   */\n      swap3\n      swap2\n      pop\n      pop\n      jump\t// out\n        /* \"#utility.yul\":4937:5054   */\n    tag_59:\n        /* \"#utility.yul\":5046:5047   */\n      0x00\n        /* \"#utility.yul\":5043:5044   */\n      dup1\n        /* \"#utility.yul\":5036:5048   */\n      revert\n        /* \"#utility.yul\":5060:5162   */\n    tag_60:\n        /* \"#utility.yul\":5101:5107   */\n      0x00\n        /* \"#utility.yul\":5152:5154   */\n      0x1f\n        /* \"#utility.yul\":5148:5155   */\n      not\n        /* \"#utility.yul\":5143:5145   */\n      0x1f\n        /* \"#utility.yul\":5136:5141   */\n      dup4\n        /* \"#utility.yul\":5132:5146   */\n      add\n        /* \"#utility.yul\":5128:5156   */\n      and\n        /* \"#utility.yul\":5118:5156   */\n      swap1\n      pop\n        /* \"#utility.yul\":5060:5162   */\n      swap2\n      swap1\n      pop\n      jump\t// out\n        /* \"#utility.yul\":5168:5348   */\n    tag_61:\n        /* \"#utility.yul\":5216:5293   */\n      0x4e487b7100000000000000000000000000000000000000000000000000000000\n        /* \"#utility.yul\":5213:5214   */\n      0x00\n        /* \"#utility.yul\":5206:5294   */\n      mstore\n        /* \"#utility.yul\":5313:5317   */\n      0x41\n        /* \"#utility.yul\":5310:5311   */\n      0x04\n        /* \"#utility.yul\":5303:5318   */\n      mstore\n        /* \"#utility.yul\":5337:5341   */\n      0x24\n        /* \"#utility.yul\":5334:5335   */\n      0x00\n        /* \"#utility.yul\":5327:5342   */\n      revert\n        /* \"#utility.yul\":5354:5635   */\n    tag_62:\n        /* \"#utility.yul\":5437:5464   */\n      tag_125\n        /* \"#utility.yul\":5459:5463   */\n      dup3\n        /* \"#utility.yul\":5437:5464   */\n      tag_60\n      jump\t// in\n    tag_125:\n        /* \"#utility.yul\":5429:5435   */\n      dup2\n        /* \"#utility.yul\":5425:5465   */\n      add\n        /* \"#utility.yul\":5567:5573   */\n      dup2\n        /* \"#utility.yul\":5555:5565   */\n      dup2\n        /* \"#utility.yul\":5552:5574   */\n      lt\n        /* \"#utility.yul\":5531:5549   */\n      0xffffffffffffffff\n        /* \"#utility.yul\":5519:5529   */\n      dup3\n        /* \"#utility.yul\":5516:5550   */\n      gt\n        /* \"#utility.yul\":5513:5575   */\n      or\n        /* \"#utility.yul\":5510:5598   */\n      iszero\n      tag_126\n      jumpi\n        /* \"#utility.yul\":5578:5596   */\n      tag_127\n      tag_61\n      jump\t// in\n    tag_127:\n        /* \"#utility.yul\":5510:5598   */\n    tag_126:\n        /* \"#utility.yul\":5618:5628   */\n      dup1\n        /* \"#utility.yul\":5614:5616   */\n      0x40\n        /* \"#utility.yul\":5607:5629   */\n      mstore\n        /* \"#utility.yul\":5397:5635   */\n      pop\n        /* \"#utility.yul\":5354:5635   */\n      pop\n      pop\n      jump\t// out\n        /* \"#utility.yul\":5641:5770   */\n    tag_63:\n        /* \"#utility.yul\":5675:5681   */\n      0x00\n        /* \"#utility.yul\":5702:5722   */\n      tag_129\n      tag_40\n      jump\t// in\n    tag_129:\n        /* \"#utility.yul\":5692:5722   */\n      swap1\n      pop\n        /* \"#utility.yul\":5731:5764   */\n      tag_130\n        /* \"#utility.yul\":5759:5763   */\n      dup3\n        /* \"#utility.yul\":5751:5757   */\n      dup3\n        /* \"#utility.yul\":5731:5764   */\n      tag_62\n      jump\t// in\n    tag_130:\n        /* \"#utility.yul\":5641:5770   */\n      swap2\n      swap1\n      pop\n      jump\t// out\n        /* \"#utility.yul\":5776:6087   */\n    tag_64:\n        /* \"#utility.yul\":5853:5857   */\n      0x00\n        /* \"#utility.yul\":5943:5961   */\n      0xffffffffffffffff\n        /* \"#utility.yul\":5935:5941   */\n      dup3\n        /* \"#utility.yul\":5932:5962   */\n      gt\n        /* \"#utility.yul\":5929:5985   */\n      iszero\n      tag_132\n      jumpi\n        /* \"#utility.yul\":5965:5983   */\n      tag_133\n      tag_61\n      jump\t// in\n    tag_133:\n        /* \"#utility.yul\":5929:5985   */\n    tag_132:\n        /* \"#utility.yul\":6015:6019   */\n      0x20\n        /* \"#utility.yul\":6007:6013   */\n      dup3\n        /* \"#utility.yul\":6003:6020   */\n      mul\n        /* \"#utility.yul\":5995:6020   */\n      swap1\n      pop\n        /* \"#utility.yul\":6075:6079   */\n      0x20\n        /* \"#utility.yul\":6069:6073   */\n      dup2\n        /* \"#utility.yul\":6065:6080   */\n      add\n        /* \"#utility.yul\":6057:6080   */\n      swap1\n      pop\n        /* \"#utility.yul\":5776:6087   */\n      swap2\n      swap1\n      pop\n      jump\t// out\n        /* \"#utility.yul\":6093:6210   */\n    tag_65:\n        /* \"#utility.yul\":6202:6203   */\n      0x00\n        /* \"#utility.yul\":6199:6200   */\n      dup1\n        /* \"#utility.yul\":6192:6204   */\n      revert\n        /* \"#utility.yul\":6216:6359   */\n    tag_66:\n        /* \"#utility.yul\":6273:6278   */\n      0x00\n        /* \"#utility.yul\":6304:6310   */\n      dup2\n        /* \"#utility.yul\":6298:6311   */\n      mload\n        /* \"#utility.yul\":6289:6311   */\n      swap1\n      pop\n        /* \"#utility.yul\":6320:6353   */\n      tag_136\n        /* \"#utility.yul\":6347:6352   */\n      dup2\n        /* \"#utility.yul\":6320:6353   */\n      tag_44\n      jump\t// in\n    tag_136:\n        /* \"#utility.yul\":6216:6359   */\n      swap3\n      swap2\n      pop\n      pop\n      jump\t// out\n        /* \"#utility.yul\":6382:7114   */\n    tag_67:\n        /* \"#utility.yul\":6489:6494   */\n      0x00\n        /* \"#utility.yul\":6514:6595   */\n      tag_138\n        /* \"#utility.yul\":6530:6594   */\n      tag_139\n        /* \"#utility.yul\":6587:6593   */\n      dup5\n        /* \"#utility.yul\":6530:6594   */\n      tag_64\n      jump\t// in\n    tag_139:\n        /* \"#utility.yul\":6514:6595   */\n      tag_63\n      jump\t// in\n    tag_138:\n        /* \"#utility.yul\":6505:6595   */\n      swap1\n      pop\n        /* \"#utility.yul\":6615:6620   */\n      dup1\n        /* \"#utility.yul\":6644:6650   */\n      dup4\n        /* \"#utility.yul\":6637:6642   */\n      dup3\n        /* \"#utility.yul\":6630:6651   */\n      mstore\n        /* \"#utility.yul\":6678:6682   */\n      0x20\n        /* \"#utility.yul\":6671:6676   */\n      dup3\n        /* \"#utility.yul\":6667:6683   */\n      add\n        /* \"#utility.yul\":6660:6683   */\n      swap1\n      pop\n        /* \"#utility.yul\":6731:6735   */\n      0x20\n        /* \"#utility.yul\":6723:6729   */\n      dup5\n        /* \"#utility.yul\":6719:6736   */\n      mul\n        /* \"#utility.yul\":6711:6717   */\n      dup4\n        /* \"#utility.yul\":6707:6737   */\n      add\n        /* \"#utility.yul\":6760:6763   */\n      dup6\n        /* \"#utility.yul\":6752:6758   */\n      dup2\n        /* \"#utility.yul\":6749:6764   */\n      gt\n        /* \"#utility.yul\":6746:6868   */\n      iszero\n      tag_140\n      jumpi\n        /* \"#utility.yul\":6779:6858   */\n      tag_141\n      tag_65\n      jump\t// in\n    tag_141:\n        /* \"#utility.yul\":6746:6868   */\n    tag_140:\n        /* \"#utility.yul\":6894:6900   */\n      dup4\n        /* \"#utility.yul\":6877:7108   */\n    tag_142:\n        /* \"#utility.yul\":6911:6917   */\n      dup2\n        /* \"#utility.yul\":6906:6909   */\n      dup2\n        /* \"#utility.yul\":6903:6918   */\n      lt\n        /* \"#utility.yul\":6877:7108   */\n      iszero\n      tag_144\n      jumpi\n        /* \"#utility.yul\":6986:6989   */\n      dup1\n        /* \"#utility.yul\":7015:7063   */\n      tag_145\n        /* \"#utility.yul\":7059:7062   */\n      dup9\n        /* \"#utility.yul\":7047:7057   */\n      dup3\n        /* \"#utility.yul\":7015:7063   */\n      tag_66\n      jump\t// in\n    tag_145:\n        /* \"#utility.yul\":7010:7013   */\n      dup5\n        /* \"#utility.yul\":7003:7064   */\n      mstore\n        /* \"#utility.yul\":7093:7097   */\n      0x20\n        /* \"#utility.yul\":7088:7091   */\n      dup5\n        /* \"#utility.yul\":7084:7098   */\n      add\n        /* \"#utility.yul\":7077:7098   */\n      swap4\n      pop\n        /* \"#utility.yul\":6953:7108   */\n      pop\n        /* \"#utility.yul\":6937:6941   */\n      0x20\n        /* \"#utility.yul\":6932:6935   */\n      dup2\n        /* \"#utility.yul\":6928:6942   */\n      add\n        /* \"#utility.yul\":6921:6942   */\n      swap1\n      pop\n        /* \"#utility.yul\":6877:7108   */\n      jump(tag_142)\n    tag_144:\n        /* \"#utility.yul\":6881:6902   */\n      pop\n        /* \"#utility.yul\":6495:7114   */\n      pop\n      pop\n        /* \"#utility.yul\":6382:7114   */\n      swap4\n      swap3\n      pop\n      pop\n      pop\n      jump\t// out\n        /* \"#utility.yul\":7137:7522   */\n    tag_68:\n        /* \"#utility.yul\":7219:7224   */\n      0x00\n        /* \"#utility.yul\":7268:7271   */\n      dup3\n        /* \"#utility.yul\":7261:7265   */\n      0x1f\n        /* \"#utility.yul\":7253:7259   */\n      dup4\n        /* \"#utility.yul\":7249:7266   */\n      add\n        /* \"#utility.yul\":7245:7272   */\n      slt\n        /* \"#utility.yul\":7235:7357   */\n      tag_147\n      jumpi\n        /* \"#utility.yul\":7276:7355   */\n      tag_148\n      tag_59\n      jump\t// in\n    tag_148:\n        /* \"#utility.yul\":7235:7357   */\n    tag_147:\n        /* \"#utility.yul\":7386:7392   */\n      dup2\n        /* \"#utility.yul\":7380:7393   */\n      mload\n        /* \"#utility.yul\":7411:7516   */\n      tag_149\n        /* \"#utility.yul\":7512:7515   */\n      dup5\n        /* \"#utility.yul\":7504:7510   */\n      dup3\n        /* \"#utility.yul\":7497:7501   */\n      0x20\n        /* \"#utility.yul\":7489:7495   */\n      dup7\n        /* \"#utility.yul\":7485:7502   */\n      add\n        /* \"#utility.yul\":7411:7516   */\n      tag_67\n      jump\t// in\n    tag_149:\n        /* \"#utility.yul\":7402:7516   */\n      swap2\n      pop\n        /* \"#utility.yul\":7225:7522   */\n      pop\n        /* \"#utility.yul\":7137:7522   */\n      swap3\n      swap2\n      pop\n      pop\n      jump\t// out\n        /* \"#utility.yul\":7528:8082   */\n    tag_39:\n        /* \"#utility.yul\":7623:7629   */\n      0x00\n        /* \"#utility.yul\":7672:7674   */\n      0x20\n        /* \"#utility.yul\":7660:7669   */\n      dup3\n        /* \"#utility.yul\":7651:7658   */\n      dup5\n        /* \"#utility.yul\":7647:7670   */\n      sub\n        /* \"#utility.yul\":7643:7675   */\n      slt\n        /* \"#utility.yul\":7640:7759   */\n      iszero\n      tag_151\n      jumpi\n        /* \"#utility.yul\":7678:7757   */\n      tag_152\n      tag_41\n      jump\t// in\n    tag_152:\n        /* \"#utility.yul\":7640:7759   */\n    tag_151:\n        /* \"#utility.yul\":7819:7820   */\n      0x00\n        /* \"#utility.yul\":7808:7817   */\n      dup3\n        /* \"#utility.yul\":7804:7821   */\n      add\n        /* \"#utility.yul\":7798:7822   */\n      mload\n        /* \"#utility.yul\":7849:7867   */\n      0xffffffffffffffff\n        /* \"#utility.yul\":7841:7847   */\n      dup2\n        /* \"#utility.yul\":7838:7868   */\n      gt\n        /* \"#utility.yul\":7835:7952   */\n      iszero\n      tag_153\n      jumpi\n        /* \"#utility.yul\":7871:7950   */\n      tag_154\n      tag_42\n      jump\t// in\n    tag_154:\n        /* \"#utility.yul\":7835:7952   */\n    tag_153:\n        /* \"#utility.yul\":7976:8065   */\n      tag_155\n        /* \"#utility.yul\":8057:8064   */\n      dup5\n        /* \"#utility.yul\":8048:8054   */\n      dup3\n        /* \"#utility.yul\":8037:8046   */\n      dup6\n        /* \"#utility.yul\":8033:8055   */\n      add\n        /* \"#utility.yul\":7976:8065   */\n      tag_68\n      jump\t// in\n    tag_155:\n        /* \"#utility.yul\":7966:8065   */\n      swap2\n      pop\n        /* \"#utility.yul\":7769:8075   */\n      pop\n        /* \"#utility.yul\":7528:8082   */\n      swap3\n      swap2\n      pop\n      pop\n      jump\t// out\n\n    auxdata: 0xa2646970667358221220e299c8f75ce7723fad5f1a3130d0d9c71bc67ff4c3d1e0782f23a27a8222c8b764736f6c63430008170033\n}\n",
				"bytecode": {
					"linkReferences": {
						"contracts/library.sol": {
							"ArrayLib": [
								{
									"length": 20,
									"start": 454
								},
								{
									"length": 20,
									"start": 480
								},
								{
									"length": 20,
									"start": 586
								}
							]
						}
					},
					"object": "60806040526040518060800160405280600160ff168152602001600260ff168152602001600360ff168152602001600460ff168152505f906004610044929190610056565b50348015610050575f80fd5b506100c1565b828054828255905f5260205f20908101928215610095579160200282015b82811115610094578251829060ff16905591602001919060010190610074565b5b5090506100a291906100a6565b5090565b5b808211156100bd575f815f9055506001016100a7565b5090565b6105f5806100ce5f395ff3fe608060405234801561000f575f80fd5b506004361061004a575f3560e01c806371e5ee5f1461004e5780638516733a1461007e57806390b5561d1461009c578063a76fc7e6146100b8575b5f80fd5b6100686004803603810190610063919061023c565b6100d6565b6040516100759190610276565b60405180910390f35b6100866100f5565b60405161009391906102ce565b60405180910390f35b6100b660048036038101906100b1919061023c565b610110565b005b6100c0610178565b6040516100cd919061039e565b60405180910390f35b5f81815481106100e4575f80fd5b905f5260205f20015f915090505481565b5f73__$ad4c226fb60524bcac255ba4645dc222f7$__905090565b73__$ad4c226fb60524bcac255ba4645dc222f7$__6397a500685f836040518363ffffffff1660e01b81526004016101499291906103d4565b5f6040518083038186803b15801561015f575f80fd5b505af4158015610171573d5f803e3d5ffd5b5050505050565b606073__$ad4c226fb60524bcac255ba4645dc222f7$__63d651caeb5f6040518263ffffffff1660e01b81526004016101b191906103fb565b5f60405180830381865af41580156101cb573d5f803e3d5ffd5b505050506040513d5f823e3d601f19601f820116820180604052508101906101f39190610578565b905090565b5f604051905090565b5f80fd5b5f80fd5b5f819050919050565b61021b81610209565b8114610225575f80fd5b50565b5f8135905061023681610212565b92915050565b5f6020828403121561025157610250610201565b5b5f61025e84828501610228565b91505092915050565b61027081610209565b82525050565b5f6020820190506102895f830184610267565b92915050565b5f73ffffffffffffffffffffffffffffffffffffffff82169050919050565b5f6102b88261028f565b9050919050565b6102c8816102ae565b82525050565b5f6020820190506102e15f8301846102bf565b92915050565b5f81519050919050565b5f82825260208201905092915050565b5f819050602082019050919050565b61031981610209565b82525050565b5f61032a8383610310565b60208301905092915050565b5f602082019050919050565b5f61034c826102e7565b61035681856102f1565b935061036183610301565b805f5b83811015610391578151610378888261031f565b975061038383610336565b925050600181019050610364565b5085935050505092915050565b5f6020820190508181035f8301526103b68184610342565b905092915050565b8082525050565b6103ce81610209565b82525050565b5f6040820190506103e75f8301856103be565b6103f460208301846103c5565b9392505050565b5f60208201905061040e5f8301846103be565b92915050565b5f80fd5b5f601f19601f8301169050919050565b7f4e487b71000000000000000000000000000000000000000000000000000000005f52604160045260245ffd5b61045e82610418565b810181811067ffffffffffffffff8211171561047d5761047c610428565b5b80604052505050565b5f61048f6101f8565b905061049b8282610455565b919050565b5f67ffffffffffffffff8211156104ba576104b9610428565b5b602082029050602081019050919050565b5f80fd5b5f815190506104dd81610212565b92915050565b5f6104f56104f0846104a0565b610486565b90508083825260208201905060208402830185811115610518576105176104cb565b5b835b81811015610541578061052d88826104cf565b84526020840193505060208101905061051a565b5050509392505050565b5f82601f83011261055f5761055e610414565b5b815161056f8482602086016104e3565b91505092915050565b5f6020828403121561058d5761058c610201565b5b5f82015167ffffffffffffffff8111156105aa576105a9610205565b5b6105b68482850161054b565b9150509291505056fea2646970667358221220e299c8f75ce7723fad5f1a3130d0d9c71bc67ff4c3d1e0782f23a27a8222c8b764736f6c63430008170033",
					"opcodes": "PUSH1 0x80 PUSH1 0x40 MSTORE PUSH1 0x40 MLOAD DUP1 PUSH1 0x80 ADD PUSH1 0x40 MSTORE DUP1 PUSH1 0x1 PUSH1 0xFF AND DUP2 MSTORE PUSH1 0x20 ADD PUSH1 0x2 PUSH1 0xFF AND DUP2 MSTORE PUSH1 0x20 ADD PUSH1 0x3 PUSH1 0xFF AND DUP2 MSTORE PUSH1 0x20 ADD PUSH1 0x4 PUSH1 0xFF AND DUP2 MSTORE POP PUSH0 SWAP1 PUSH1 0x4 PUSH2 0x44 SWAP3 SWAP2 SWAP1 PUSH2 0x56 JUMP JUMPDEST POP CALLVALUE DUP1 ISZERO PUSH2 0x50 JUMPI PUSH0 DUP1 REVERT JUMPDEST POP PUSH2 0xC1 JUMP JUMPDEST DUP3 DUP1 SLOAD DUP3 DUP3 SSTORE SWAP1 PUSH0 MSTORE PUSH1 0x20 PUSH0 KECCAK256 SWAP1 DUP2 ADD SWAP3 DUP3 ISZERO PUSH2 0x95 JUMPI SWAP2 PUSH1 0x20 MUL DUP3 ADD JUMPDEST DUP3 DUP2 GT ISZERO PUSH2 0x94 JUMPI DUP3 MLOAD DUP3 SWAP1 PUSH1 0xFF AND SWAP1 SSTORE SWAP2 PUSH1 0x20 ADD SWAP2 SWAP1 PUSH1 0x1 ADD SWAP1 PUSH2 0x74 JUMP JUMPDEST JUMPDEST POP SWAP1 POP PUSH2 0xA2 SWAP2 SWAP1 PUSH2 0xA6 JUMP JUMPDEST POP SWAP1 JUMP JUMPDEST JUMPDEST DUP1 DUP3 GT ISZERO PUSH2 0xBD JUMPI PUSH0 DUP2 PUSH0 SWAP1 SSTORE POP PUSH1 0x1 ADD PUSH2 0xA7 JUMP JUMPDEST POP SWAP1 JUMP JUMPDEST PUSH2 0x5F5 DUP1 PUSH2 0xCE PUSH0 CODECOPY PUSH0 RETURN INVALID PUSH1 0x80 PUSH1 0x40 MSTORE CALLVALUE DUP1 ISZERO PUSH2 0xF JUMPI PUSH0 DUP1 REVERT JUMPDEST POP PUSH1 0x4 CALLDATASIZE LT PUSH2 0x4A JUMPI PUSH0 CALLDATALOAD PUSH1 0xE0 SHR DUP1 PUSH4 0x71E5EE5F EQ PUSH2 0x4E JUMPI DUP1 PUSH4 0x8516733A EQ PUSH2 0x7E JUMPI DUP1 PUSH4 0x90B5561D EQ PUSH2 0x9C JUMPI DUP1 PUSH4 0xA76FC7E6 EQ PUSH2 0xB8 JUMPI JUMPDEST PUSH0 DUP1 REVERT JUMPDEST PUSH2 0x68 PUSH1 0x4 DUP1 CALLDATASIZE SUB DUP2 ADD SWAP1 PUSH2 0x63 SWAP2 SWAP1 PUSH2 0x23C JUMP JUMPDEST PUSH2 0xD6 JUMP JUMPDEST PUSH1 0x40 MLOAD PUSH2 0x75 SWAP2 SWAP1 PUSH2 0x276 JUMP JUMPDEST PUSH1 0x40 MLOAD DUP1 SWAP2 SUB SWAP1 RETURN JUMPDEST PUSH2 0x86 PUSH2 0xF5 JUMP JUMPDEST PUSH1 0x40 MLOAD PUSH2 0x93 SWAP2 SWAP1 PUSH2 0x2CE JUMP JUMPDEST PUSH1 0x40 MLOAD DUP1 SWAP2 SUB SWAP1 RETURN JUMPDEST PUSH2 0xB6 PUSH1 0x4 DUP1 CALLDATASIZE SUB DUP2 ADD SWAP1 PUSH2 0xB1 SWAP2 SWAP1 PUSH2 0x23C JUMP JUMPDEST PUSH2 0x110 JUMP JUMPDEST STOP JUMPDEST PUSH2 0xC0 PUSH2 0x178 JUMP JUMPDEST PUSH1 0x40 MLOAD PUSH2 0xCD SWAP2 SWAP1 PUSH2 0x39E JUMP JUMPDEST PUSH1 0x40 MLOAD DUP1 SWAP2 SUB SWAP1 RETURN JUMPDEST PUSH0 DUP2 DUP2 SLOAD DUP2 LT PUSH2 0xE4 JUMPI PUSH0 DUP1 REVERT JUMPDEST SWAP1 PUSH0 MSTORE PUSH1 0x20 PUSH0 KECCAK256 ADD PUSH0 SWAP2 POP SWAP1 POP SLOAD DUP2 JUMP JUMPDEST PUSH0 PUSH20 0x0 SWAP1 POP SWAP1 JUMP JUMPDEST PUSH20 0x0 PUSH4 0x97A50068 PUSH0 DUP4 PUSH1 0x40 MLOAD DUP4 PUSH4 0xFFFFFFFF AND PUSH1 0xE0 SHL DUP2 MSTORE PUSH1 0x4 ADD PUSH2 0x149 SWAP3 SWAP2 SWAP1 PUSH2 0x3D4 JUMP JUMPDEST PUSH0 PUSH1 0x40 MLOAD DUP1 DUP4 SUB DUP2 DUP7 DUP1 EXTCODESIZE ISZERO DUP1 ISZERO PUSH2 0x15F JUMPI PUSH0 DUP1 REVERT JUMPDEST POP GAS DELEGATECALL ISZERO DUP1 ISZERO PUSH2 0x171 JUMPI RETURNDATASIZE PUSH0 DUP1 RETURNDATACOPY RETURNDATASIZE PUSH0 REVERT JUMPDEST POP POP POP POP POP JUMP JUMPDEST PUSH1 0x60 PUSH20 0x0 PUSH4 0xD651CAEB PUSH0 PUSH1 0x40 MLOAD DUP3 PUSH4 0xFFFFFFFF AND PUSH1 0xE0 SHL DUP2 MSTORE PUSH1 0x4 ADD PUSH2 0x1B1 SWAP2 SWAP1 PUSH2 0x3FB JUMP JUMPDEST PUSH0 PUSH1 0x40 MLOAD DUP1 DUP4 SUB DUP2 DUP7 GAS DELEGATECALL ISZERO DUP1 ISZERO PUSH2 0x1CB JUMPI RETURNDATASIZE PUSH0 DUP1 RETURNDATACOPY RETURNDATASIZE PUSH0 REVERT JUMPDEST POP POP POP POP PUSH1 0x40 MLOAD RETURNDATASIZE PUSH0 DUP3 RETURNDATACOPY RETURNDATASIZE PUSH1 0x1F NOT PUSH1 0x1F DUP3 ADD AND DUP3 ADD DUP1 PUSH1 0x40 MSTORE POP DUP2 ADD SWAP1 PUSH2 0x1F3 SWAP2 SWAP1 PUSH2 0x578 JUMP JUMPDEST SWAP1 POP SWAP1 JUMP JUMPDEST PUSH0 PUSH1 0x40 MLOAD SWAP1 POP SWAP1 JUMP JUMPDEST PUSH0 DUP1 REVERT JUMPDEST PUSH0 DUP1 REVERT JUMPDEST PUSH0 DUP2 SWAP1 POP SWAP2 SWAP1 POP JUMP JUMPDEST PUSH2 0x21B DUP2 PUSH2 0x209 JUMP JUMPDEST DUP2 EQ PUSH2 0x225 JUMPI PUSH0 DUP1 REVERT JUMPDEST POP JUMP JUMPDEST PUSH0 DUP2 CALLDATALOAD SWAP1 POP PUSH2 0x236 DUP2 PUSH2 0x212 JUMP JUMPDEST SWAP3 SWAP2 POP POP JUMP JUMPDEST PUSH0 PUSH1 0x20 DUP3 DUP5 SUB SLT ISZERO PUSH2 0x251 JUMPI PUSH2 0x250 PUSH2 0x201 JUMP JUMPDEST JUMPDEST PUSH0 PUSH2 0x25E DUP5 DUP3 DUP6 ADD PUSH2 0x228 JUMP JUMPDEST SWAP2 POP POP SWAP3 SWAP2 POP POP JUMP JUMPDEST PUSH2 0x270 DUP2 PUSH2 0x209 JUMP JUMPDEST DUP3 MSTORE POP POP JUMP JUMPDEST PUSH0 PUSH1 0x20 DUP3 ADD SWAP1 POP PUSH2 0x289 PUSH0 DUP4 ADD DUP5 PUSH2 0x267 JUMP JUMPDEST SWAP3 SWAP2 POP POP JUMP JUMPDEST PUSH0 PUSH20 0xFFFFFFFFFFFFFFFFFFFFFFFFFFFFFFFFFFFFFFFF DUP3 AND SWAP1 POP SWAP2 SWAP1 POP JUMP JUMPDEST PUSH0 PUSH2 0x2B8 DUP3 PUSH2 0x28F JUMP JUMPDEST SWAP1 POP SWAP2 SWAP1 POP JUMP JUMPDEST PUSH2 0x2C8 DUP2 PUSH2 0x2AE JUMP JUMPDEST DUP3 MSTORE POP POP JUMP JUMPDEST PUSH0 PUSH1 0x20 DUP3 ADD SWAP1 POP PUSH2 0x2E1 PUSH0 DUP4 ADD DUP5 PUSH2 0x2BF JUMP JUMPDEST SWAP3 SWAP2 POP POP JUMP JUMPDEST PUSH0 DUP2 MLOAD SWAP1 POP SWAP2 SWAP1 POP JUMP JUMPDEST PUSH0 DUP3 DUP3 MSTORE PUSH1 0x20 DUP3 ADD SWAP1 POP SWAP3 SWAP2 POP POP JUMP JUMPDEST PUSH0 DUP2 SWAP1 POP PUSH1 0x20 DUP3 ADD SWAP1 POP SWAP2 SWAP1 POP JUMP JUMPDEST PUSH2 0x319 DUP2 PUSH2 0x209 JUMP JUMPDEST DUP3 MSTORE POP POP JUMP JUMPDEST PUSH0 PUSH2 0x32A DUP4 DUP4 PUSH2 0x310 JUMP JUMPDEST PUSH1 0x20 DUP4 ADD SWAP1 POP SWAP3 SWAP2 POP POP JUMP JUMPDEST PUSH0 PUSH1 0x20 DUP3 ADD SWAP1 POP SWAP2 SWAP1 POP JUMP JUMPDEST PUSH0 PUSH2 0x34C DUP3 PUSH2 0x2E7 JUMP JUMPDEST PUSH2 0x356 DUP2 DUP6 PUSH2 0x2F1 JUMP JUMPDEST SWAP4 POP PUSH2 0x361 DUP4 PUSH2 0x301 JUMP JUMPDEST DUP1 PUSH0 JUMPDEST DUP4 DUP2 LT ISZERO PUSH2 0x391 JUMPI DUP2 MLOAD PUSH2 0x378 DUP9 DUP3 PUSH2 0x31F JUMP JUMPDEST SWAP8 POP PUSH2 0x383 DUP4 PUSH2 0x336 JUMP JUMPDEST SWAP3 POP POP PUSH1 0x1 DUP2 ADD SWAP1 POP PUSH2 0x364 JUMP JUMPDEST POP DUP6 SWAP4 POP POP POP POP SWAP3 SWAP2 POP POP JUMP JUMPDEST PUSH0 PUSH1 0x20 DUP3 ADD SWAP1 POP DUP2 DUP2 SUB PUSH0 DUP4 ADD MSTORE PUSH2 0x3B6 DUP2 DUP5 PUSH2 0x342 JUMP JUMPDEST SWAP1 POP SWAP3 SWAP2 POP POP JUMP JUMPDEST DUP1 DUP3 MSTORE POP POP JUMP JUMPDEST PUSH2 0x3CE DUP2 PUSH2 0x209 JUMP JUMPDEST DUP3 MSTORE POP POP JUMP JUMPDEST PUSH0 PUSH1 0x40 DUP3 ADD SWAP1 POP PUSH2 0x3E7 PUSH0 DUP4 ADD DUP6 PUSH2 0x3BE JUMP JUMPDEST PUSH2 0x3F4 PUSH1 0x20 DUP4 ADD DUP5 PUSH2 0x3C5 JUMP JUMPDEST SWAP4 SWAP3 POP POP POP JUMP JUMPDEST PUSH0 PUSH1 0x20 DUP3 ADD SWAP1 POP PUSH2 0x40E PUSH0 DUP4 ADD DUP5 PUSH2 0x3BE JUMP JUMPDEST SWAP3 SWAP2 POP POP JUMP JUMPDEST PUSH0 DUP1 REVERT JUMPDEST PUSH0 PUSH1 0x1F NOT PUSH1 0x1F DUP4 ADD AND SWAP1 POP SWAP2 SWAP1 POP JUMP JUMPDEST PUSH32 0x4E487B7100000000000000000000000000000000000000000000000000000000 PUSH0 MSTORE PUSH1 0x41 PUSH1 0x4 MSTORE PUSH1 0x24 PUSH0 REVERT JUMPDEST PUSH2 0x45E DUP3 PUSH2 0x418 JUMP JUMPDEST DUP2 ADD DUP2 DUP2 LT PUSH8 0xFFFFFFFFFFFFFFFF DUP3 GT OR ISZERO PUSH2 0x47D JUMPI PUSH2 0x47C PUSH2 0x428 JUMP JUMPDEST JUMPDEST DUP1 PUSH1 0x40 MSTORE POP POP POP JUMP JUMPDEST PUSH0 PUSH2 0x48F PUSH2 0x1F8 JUMP JUMPDEST SWAP1 POP PUSH2 0x49B DUP3 DUP3 PUSH2 0x455 JUMP JUMPDEST SWAP2 SWAP1 POP JUMP JUMPDEST PUSH0 PUSH8 0xFFFFFFFFFFFFFFFF DUP3 GT ISZERO PUSH2 0x4BA JUMPI PUSH2 0x4B9 PUSH2 0x428 JUMP JUMPDEST JUMPDEST PUSH1 0x20 DUP3 MUL SWAP1 POP PUSH1 0x20 DUP2 ADD SWAP1 POP SWAP2 SWAP1 POP JUMP JUMPDEST PUSH0 DUP1 REVERT JUMPDEST PUSH0 DUP2 MLOAD SWAP1 POP PUSH2 0x4DD DUP2 PUSH2 0x212 JUMP JUMPDEST SWAP3 SWAP2 POP POP JUMP JUMPDEST PUSH0 PUSH2 0x4F5 PUSH2 0x4F0 DUP5 PUSH2 0x4A0 JUMP JUMPDEST PUSH2 0x486 JUMP JUMPDEST SWAP1 POP DUP1 DUP4 DUP3 MSTORE PUSH1 0x20 DUP3 ADD SWAP1 POP PUSH1 0x20 DUP5 MUL DUP4 ADD DUP6 DUP2 GT ISZERO PUSH2 0x518 JUMPI PUSH2 0x517 PUSH2 0x4CB JUMP JUMPDEST JUMPDEST DUP4 JUMPDEST DUP2 DUP2 LT ISZERO PUSH2 0x541 JUMPI DUP1 PUSH2 0x52D DUP9 DUP3 PUSH2 0x4CF JUMP JUMPDEST DUP5 MSTORE PUSH1 0x20 DUP5 ADD SWAP4 POP POP PUSH1 0x20 DUP2 ADD SWAP1 POP PUSH2 0x51A JUMP JUMPDEST POP POP POP SWAP4 SWAP3 POP POP POP JUMP JUMPDEST PUSH0 DUP3 PUSH1 0x1F DUP4 ADD SLT PUSH2 0x55F JUMPI PUSH2 0x55E PUSH2 0x414 JUMP JUMPDEST JUMPDEST DUP2 MLOAD PUSH2 0x56F DUP5 DUP3 PUSH1 0x20 DUP7 ADD PUSH2 0x4E3 JUMP JUMPDEST SWAP2 POP POP SWAP3 SWAP2 POP POP JUMP JUMPDEST PUSH0 PUSH1 0x20 DUP3 DUP5 SUB SLT ISZERO PUSH2 0x58D JUMPI PUSH2 0x58C PUSH2 0x201 JUMP JUMPDEST JUMPDEST PUSH0 DUP3 ADD MLOAD PUSH8 0xFFFFFFFFFFFFFFFF DUP2 GT ISZERO PUSH2 0x5AA JUMPI PUSH2 0x5A9 PUSH2 0x205 JUMP JUMPDEST JUMPDEST PUSH2 0x5B6 DUP5 DUP3 DUP6 ADD PUSH2 0x54B JUMP JUMPDEST SWAP2 POP POP SWAP3 SWAP2 POP POP JUMP INVALID LOG2 PUSH5 0x6970667358 0x22 SLT KECCAK256 0xE2 SWAP10 0xC8 0xF7 0x5C 0xE7 PUSH19 0x3FAD5F1A3130D0D9C71BC67FF4C3D1E0782F23 LOG2 PUSH27 0x8222C8B764736F6C63430008170033000000000000000000000000 "
				},
				"gasEstimates": {
					"creation": {
						"codeDepositCost": "305000",
						"executionCost": "infinite",
						"totalCost": "infinite"
					},
					"external": {
						"arr(uint256)": "infinite",
						"getLibAddr()": "380",
						"getReverse()": "infinite",
						"insert(uint256)": "infinite"
					}
				},
				"methodIdentifiers": {
					"arr(uint256)": "71e5ee5f",
					"getLibAddr()": "8516733a",
					"getReverse()": "a76fc7e6",
					"insert(uint256)": "90b5561d"
				}
			},
			"storageLayout": {
				"storage": [
					{
						"astId": 80,
						"contract": "contracts/library.sol:exp",
						"label": "arr",
						"offset": 0,
						"slot": "0",
						"type": "t_array(t_uint256)dyn_storage"
					}
				],
				"types": {
					"t_array(t_uint256)dyn_storage": {
						"base": "t_uint256",
						"encoding": "dynamic_array",
						"label": "uint256[]",
						"numberOfBytes": "32"
					},
					"t_uint256": {
						"encoding": "inplace",
						"label": "uint256",
						"numberOfBytes": "32"
					}
				}
			},
			"userdoc": {
				"kind": "user",
				"methods": {},
				"version": 1
			}
		}
	}
}