{
	"contracts/enums.sol": {
		"Enums": {
			"abi": [
				{
					"inputs": [],
					"name": "applied",
					"outputs": [
						{
							"internalType": "uint8",
							"name": "",
							"type": "uint8"
						}
					],
					"stateMutability": "view",
					"type": "function"
				},
				{
					"inputs": [],
					"name": "applyloan",
					"outputs": [
						{
							"internalType": "uint256",
							"name": "",
							"type": "uint256"
						},
						{
							"internalType": "enum Enums.loanstatus",
							"name": "",
							"type": "uint8"
						}
					],
					"stateMutability": "nonpayable",
					"type": "function"
				},
				{
					"inputs": [],
					"name": "inprogress",
					"outputs": [
						{
							"internalType": "uint8",
							"name": "",
							"type": "uint8"
						}
					],
					"stateMutability": "view",
					"type": "function"
				},
				{
					"inputs": [],
					"name": "isinprogress",
					"outputs": [
						{
							"internalType": "bool",
							"name": "",
							"type": "bool"
						}
					],
					"stateMutability": "view",
					"type": "function"
				},
				{
					"inputs": [],
					"name": "progressloan",
					"outputs": [],
					"stateMutability": "nonpayable",
					"type": "function"
				}
			],
			"devdoc": {
				"kind": "dev",
				"methods": {},
				"version": 1
			},
			"evm": {
				"assembly": "    /* \"contracts/enums.sol\":125:847  contract Enums {... */\n  mstore(0x40, 0x80)\n    /* \"contracts/enums.sol\":170:171  0 */\n  0x00\n    /* \"contracts/enums.sol\":147:171  uint8 public applied = 0 */\n  dup1\n  exp(0x0100, 0x00)\n  dup2\n  sload\n  dup2\n  0xff\n  mul\n  not\n  and\n  swap1\n  dup4\n  0xff\n  and\n  mul\n  or\n  swap1\n  sstore\n  pop\n    /* \"contracts/enums.sol\":204:205  1 */\n  0x01\n    /* \"contracts/enums.sol\":178:205  uint8 public inprogress = 1 */\n  0x00\n  exp(0x0100, 0x01)\n  dup2\n  sload\n  dup2\n  0xff\n  mul\n  not\n  and\n  swap1\n  dup4\n  0xff\n  and\n  mul\n  or\n  swap1\n  sstore\n  pop\n    /* \"contracts/enums.sol\":125:847  contract Enums {... */\n  callvalue\n  dup1\n  iszero\n  tag_1\n  jumpi\n  0x00\n  dup1\n  revert\ntag_1:\n  pop\n  dataSize(sub_0)\n  dup1\n  dataOffset(sub_0)\n  0x00\n  codecopy\n  0x00\n  return\nstop\n\nsub_0: assembly {\n        /* \"contracts/enums.sol\":125:847  contract Enums {... */\n      mstore(0x40, 0x80)\n      callvalue\n      dup1\n      iszero\n      tag_1\n      jumpi\n      0x00\n      dup1\n      revert\n    tag_1:\n      pop\n      jumpi(tag_2, lt(calldatasize, 0x04))\n      shr(0xe0, calldataload(0x00))\n      dup1\n      0x0249073e\n      eq\n      tag_3\n      jumpi\n      dup1\n      0x13dcdd26\n      eq\n      tag_4\n      jumpi\n      dup1\n      0x4d87ffaa\n      eq\n      tag_5\n      jumpi\n      dup1\n      0x6d4478b9\n      eq\n      tag_6\n      jumpi\n      dup1\n      0xebe88a2b\n      eq\n      tag_7\n      jumpi\n    tag_2:\n      0x00\n      dup1\n      revert\n        /* \"contracts/enums.sol\":178:205  uint8 public inprogress = 1 */\n    tag_3:\n      tag_8\n      tag_9\n      jump\t// in\n    tag_8:\n      mload(0x40)\n      tag_10\n      swap2\n      swap1\n      tag_11\n      jump\t// in\n    tag_10:\n      mload(0x40)\n      dup1\n      swap2\n      sub\n      swap1\n      return\n        /* \"contracts/enums.sol\":603:740  function isinprogress() public view returns(bool){... */\n    tag_4:\n      tag_12\n      tag_13\n      jump\t// in\n    tag_12:\n      mload(0x40)\n      tag_14\n      swap2\n      swap1\n      tag_15\n      jump\t// in\n    tag_14:\n      mload(0x40)\n      dup1\n      swap2\n      sub\n      swap1\n      return\n        /* \"contracts/enums.sol\":335:498  function applyloan() public returns (uint, loanstatus){... */\n    tag_5:\n      tag_16\n      tag_17\n      jump\t// in\n    tag_16:\n      mload(0x40)\n      tag_18\n      swap3\n      swap2\n      swap1\n      tag_19\n      jump\t// in\n    tag_18:\n      mload(0x40)\n      dup1\n      swap2\n      sub\n      swap1\n      return\n        /* \"contracts/enums.sol\":147:171  uint8 public applied = 0 */\n    tag_6:\n      tag_20\n      tag_21\n      jump\t// in\n    tag_20:\n      mload(0x40)\n      tag_22\n      swap2\n      swap1\n      tag_11\n      jump\t// in\n    tag_22:\n      mload(0x40)\n      dup1\n      swap2\n      sub\n      swap1\n      return\n        /* \"contracts/enums.sol\":506:595  function progressloan() public {... */\n    tag_7:\n      tag_23\n      tag_24\n      jump\t// in\n    tag_23:\n      stop\n        /* \"contracts/enums.sol\":178:205  uint8 public inprogress = 1 */\n    tag_9:\n      0x00\n      0x01\n      swap1\n      sload\n      swap1\n      0x0100\n      exp\n      swap1\n      div\n      0xff\n      and\n      dup2\n      jump\t// out\n        /* \"contracts/enums.sol\":603:740  function isinprogress() public view returns(bool){... */\n    tag_13:\n        /* \"contracts/enums.sol\":647:651  bool */\n      0x00\n        /* \"contracts/enums.sol\":688:709  loanstatus.inprogress */\n      0x01\n        /* \"contracts/enums.sol\":671:709  gokulloanstatus==loanstatus.inprogress */\n      0x03\n      dup2\n      gt\n      iszero\n      tag_26\n      jumpi\n      tag_27\n      tag_28\n      jump\t// in\n    tag_27:\n    tag_26:\n        /* \"contracts/enums.sol\":671:686  gokulloanstatus */\n      0x00\n      0x02\n      swap1\n      sload\n      swap1\n      0x0100\n      exp\n      swap1\n      div\n      0xff\n      and\n        /* \"contracts/enums.sol\":671:709  gokulloanstatus==loanstatus.inprogress */\n      0x03\n      dup2\n      gt\n      iszero\n      tag_29\n      jumpi\n      tag_30\n      tag_28\n      jump\t// in\n    tag_30:\n    tag_29:\n      eq\n        /* \"contracts/enums.sol\":663:710  require(gokulloanstatus==loanstatus.inprogress) */\n      tag_31\n      jumpi\n      0x00\n      dup1\n      revert\n    tag_31:\n        /* \"contracts/enums.sol\":728:732  true */\n      0x01\n        /* \"contracts/enums.sol\":721:732  return true */\n      swap1\n      pop\n        /* \"contracts/enums.sol\":603:740  function isinprogress() public view returns(bool){... */\n      swap1\n      jump\t// out\n        /* \"contracts/enums.sol\":335:498  function applyloan() public returns (uint, loanstatus){... */\n    tag_17:\n        /* \"contracts/enums.sol\":372:376  uint */\n      0x00\n        /* \"contracts/enums.sol\":378:388  loanstatus */\n      dup1\n        /* \"contracts/enums.sol\":419:437  loanstatus.applied */\n      0x00\n        /* \"contracts/enums.sol\":401:416  gokulloanstatus */\n      dup1\n      0x02\n        /* \"contracts/enums.sol\":401:437  gokulloanstatus = loanstatus.applied */\n      0x0100\n      exp\n      dup2\n      sload\n      dup2\n      0xff\n      mul\n      not\n      and\n      swap1\n      dup4\n      0x03\n      dup2\n      gt\n      iszero\n      tag_33\n      jumpi\n      tag_34\n      tag_28\n      jump\t// in\n    tag_34:\n    tag_33:\n      mul\n      or\n      swap1\n      sstore\n      pop\n        /* \"contracts/enums.sol\":457:472  block.timestamp */\n      timestamp\n        /* \"contracts/enums.sol\":474:489  gokulloanstatus */\n      0x00\n      0x02\n      swap1\n      sload\n      swap1\n      0x0100\n      exp\n      swap1\n      div\n      0xff\n      and\n        /* \"contracts/enums.sol\":449:490  return (block.timestamp, gokulloanstatus) */\n      swap2\n      pop\n      swap2\n      pop\n        /* \"contracts/enums.sol\":335:498  function applyloan() public returns (uint, loanstatus){... */\n      swap1\n      swap2\n      jump\t// out\n        /* \"contracts/enums.sol\":147:171  uint8 public applied = 0 */\n    tag_21:\n      0x00\n      dup1\n      sload\n      swap1\n      0x0100\n      exp\n      swap1\n      div\n      0xff\n      and\n      dup2\n      jump\t// out\n        /* \"contracts/enums.sol\":506:595  function progressloan() public {... */\n    tag_24:\n        /* \"contracts/enums.sol\":566:587  loanstatus.inprogress */\n      0x01\n        /* \"contracts/enums.sol\":548:563  gokulloanstatus */\n      0x00\n      0x02\n        /* \"contracts/enums.sol\":548:587  gokulloanstatus = loanstatus.inprogress */\n      0x0100\n      exp\n      dup2\n      sload\n      dup2\n      0xff\n      mul\n      not\n      and\n      swap1\n      dup4\n      0x03\n      dup2\n      gt\n      iszero\n      tag_36\n      jumpi\n      tag_37\n      tag_28\n      jump\t// in\n    tag_37:\n    tag_36:\n      mul\n      or\n      swap1\n      sstore\n      pop\n        /* \"contracts/enums.sol\":506:595  function progressloan() public {... */\n      jump\t// out\n        /* \"#utility.yul\":7:93   */\n    tag_38:\n        /* \"#utility.yul\":42:49   */\n      0x00\n        /* \"#utility.yul\":82:86   */\n      0xff\n        /* \"#utility.yul\":75:80   */\n      dup3\n        /* \"#utility.yul\":71:87   */\n      and\n        /* \"#utility.yul\":60:87   */\n      swap1\n      pop\n        /* \"#utility.yul\":7:93   */\n      swap2\n      swap1\n      pop\n      jump\t// out\n        /* \"#utility.yul\":99:211   */\n    tag_39:\n        /* \"#utility.yul\":182:204   */\n      tag_51\n        /* \"#utility.yul\":198:203   */\n      dup2\n        /* \"#utility.yul\":182:204   */\n      tag_38\n      jump\t// in\n    tag_51:\n        /* \"#utility.yul\":177:180   */\n      dup3\n        /* \"#utility.yul\":170:205   */\n      mstore\n        /* \"#utility.yul\":99:211   */\n      pop\n      pop\n      jump\t// out\n        /* \"#utility.yul\":217:431   */\n    tag_11:\n        /* \"#utility.yul\":306:310   */\n      0x00\n        /* \"#utility.yul\":344:346   */\n      0x20\n        /* \"#utility.yul\":333:342   */\n      dup3\n        /* \"#utility.yul\":329:347   */\n      add\n        /* \"#utility.yul\":321:347   */\n      swap1\n      pop\n        /* \"#utility.yul\":357:424   */\n      tag_53\n        /* \"#utility.yul\":421:422   */\n      0x00\n        /* \"#utility.yul\":410:419   */\n      dup4\n        /* \"#utility.yul\":406:423   */\n      add\n        /* \"#utility.yul\":397:403   */\n      dup5\n        /* \"#utility.yul\":357:424   */\n      tag_39\n      jump\t// in\n    tag_53:\n        /* \"#utility.yul\":217:431   */\n      swap3\n      swap2\n      pop\n      pop\n      jump\t// out\n        /* \"#utility.yul\":437:527   */\n    tag_40:\n        /* \"#utility.yul\":471:478   */\n      0x00\n        /* \"#utility.yul\":514:519   */\n      dup2\n        /* \"#utility.yul\":507:520   */\n      iszero\n        /* \"#utility.yul\":500:521   */\n      iszero\n        /* \"#utility.yul\":489:521   */\n      swap1\n      pop\n        /* \"#utility.yul\":437:527   */\n      swap2\n      swap1\n      pop\n      jump\t// out\n        /* \"#utility.yul\":533:642   */\n    tag_41:\n        /* \"#utility.yul\":614:635   */\n      tag_56\n        /* \"#utility.yul\":629:634   */\n      dup2\n        /* \"#utility.yul\":614:635   */\n      tag_40\n      jump\t// in\n    tag_56:\n        /* \"#utility.yul\":609:612   */\n      dup3\n        /* \"#utility.yul\":602:636   */\n      mstore\n        /* \"#utility.yul\":533:642   */\n      pop\n      pop\n      jump\t// out\n        /* \"#utility.yul\":648:858   */\n    tag_15:\n        /* \"#utility.yul\":735:739   */\n      0x00\n        /* \"#utility.yul\":773:775   */\n      0x20\n        /* \"#utility.yul\":762:771   */\n      dup3\n        /* \"#utility.yul\":758:776   */\n      add\n        /* \"#utility.yul\":750:776   */\n      swap1\n      pop\n        /* \"#utility.yul\":786:851   */\n      tag_58\n        /* \"#utility.yul\":848:849   */\n      0x00\n        /* \"#utility.yul\":837:846   */\n      dup4\n        /* \"#utility.yul\":833:850   */\n      add\n        /* \"#utility.yul\":824:830   */\n      dup5\n        /* \"#utility.yul\":786:851   */\n      tag_41\n      jump\t// in\n    tag_58:\n        /* \"#utility.yul\":648:858   */\n      swap3\n      swap2\n      pop\n      pop\n      jump\t// out\n        /* \"#utility.yul\":864:941   */\n    tag_42:\n        /* \"#utility.yul\":901:908   */\n      0x00\n        /* \"#utility.yul\":930:935   */\n      dup2\n        /* \"#utility.yul\":919:935   */\n      swap1\n      pop\n        /* \"#utility.yul\":864:941   */\n      swap2\n      swap1\n      pop\n      jump\t// out\n        /* \"#utility.yul\":947:1065   */\n    tag_43:\n        /* \"#utility.yul\":1034:1058   */\n      tag_61\n        /* \"#utility.yul\":1052:1057   */\n      dup2\n        /* \"#utility.yul\":1034:1058   */\n      tag_42\n      jump\t// in\n    tag_61:\n        /* \"#utility.yul\":1029:1032   */\n      dup3\n        /* \"#utility.yul\":1022:1059   */\n      mstore\n        /* \"#utility.yul\":947:1065   */\n      pop\n      pop\n      jump\t// out\n        /* \"#utility.yul\":1071:1251   */\n    tag_28:\n        /* \"#utility.yul\":1119:1196   */\n      0x4e487b7100000000000000000000000000000000000000000000000000000000\n        /* \"#utility.yul\":1116:1117   */\n      0x00\n        /* \"#utility.yul\":1109:1197   */\n      mstore\n        /* \"#utility.yul\":1216:1220   */\n      0x21\n        /* \"#utility.yul\":1213:1214   */\n      0x04\n        /* \"#utility.yul\":1206:1221   */\n      mstore\n        /* \"#utility.yul\":1240:1244   */\n      0x24\n        /* \"#utility.yul\":1237:1238   */\n      0x00\n        /* \"#utility.yul\":1230:1245   */\n      revert\n        /* \"#utility.yul\":1257:1375   */\n    tag_44:\n        /* \"#utility.yul\":1343:1344   */\n      0x04\n        /* \"#utility.yul\":1336:1341   */\n      dup2\n        /* \"#utility.yul\":1333:1345   */\n      lt\n        /* \"#utility.yul\":1323:1369   */\n      tag_64\n      jumpi\n        /* \"#utility.yul\":1349:1367   */\n      tag_65\n      tag_28\n      jump\t// in\n    tag_65:\n        /* \"#utility.yul\":1323:1369   */\n    tag_64:\n        /* \"#utility.yul\":1257:1375   */\n      pop\n      jump\t// out\n        /* \"#utility.yul\":1381:1518   */\n    tag_45:\n        /* \"#utility.yul\":1431:1438   */\n      0x00\n        /* \"#utility.yul\":1460:1465   */\n      dup2\n        /* \"#utility.yul\":1449:1465   */\n      swap1\n      pop\n        /* \"#utility.yul\":1466:1512   */\n      tag_67\n        /* \"#utility.yul\":1506:1511   */\n      dup3\n        /* \"#utility.yul\":1466:1512   */\n      tag_44\n      jump\t// in\n    tag_67:\n        /* \"#utility.yul\":1381:1518   */\n      swap2\n      swap1\n      pop\n      jump\t// out\n        /* \"#utility.yul\":1524:1661   */\n    tag_46:\n        /* \"#utility.yul\":1585:1594   */\n      0x00\n        /* \"#utility.yul\":1618:1655   */\n      tag_69\n        /* \"#utility.yul\":1649:1654   */\n      dup3\n        /* \"#utility.yul\":1618:1655   */\n      tag_45\n      jump\t// in\n    tag_69:\n        /* \"#utility.yul\":1605:1655   */\n      swap1\n      pop\n        /* \"#utility.yul\":1524:1661   */\n      swap2\n      swap1\n      pop\n      jump\t// out\n        /* \"#utility.yul\":1667:1820   */\n    tag_47:\n        /* \"#utility.yul\":1765:1813   */\n      tag_71\n        /* \"#utility.yul\":1807:1812   */\n      dup2\n        /* \"#utility.yul\":1765:1813   */\n      tag_46\n      jump\t// in\n    tag_71:\n        /* \"#utility.yul\":1760:1763   */\n      dup3\n        /* \"#utility.yul\":1753:1814   */\n      mstore\n        /* \"#utility.yul\":1667:1820   */\n      pop\n      pop\n      jump\t// out\n        /* \"#utility.yul\":1826:2180   */\n    tag_19:\n        /* \"#utility.yul\":1958:1962   */\n      0x00\n        /* \"#utility.yul\":1996:1998   */\n      0x40\n        /* \"#utility.yul\":1985:1994   */\n      dup3\n        /* \"#utility.yul\":1981:1999   */\n      add\n        /* \"#utility.yul\":1973:1999   */\n      swap1\n      pop\n        /* \"#utility.yul\":2009:2080   */\n      tag_73\n        /* \"#utility.yul\":2077:2078   */\n      0x00\n        /* \"#utility.yul\":2066:2075   */\n      dup4\n        /* \"#utility.yul\":2062:2079   */\n      add\n        /* \"#utility.yul\":2053:2059   */\n      dup6\n        /* \"#utility.yul\":2009:2080   */\n      tag_43\n      jump\t// in\n    tag_73:\n        /* \"#utility.yul\":2090:2173   */\n      tag_74\n        /* \"#utility.yul\":2169:2171   */\n      0x20\n        /* \"#utility.yul\":2158:2167   */\n      dup4\n        /* \"#utility.yul\":2154:2172   */\n      add\n        /* \"#utility.yul\":2145:2151   */\n      dup5\n        /* \"#utility.yul\":2090:2173   */\n      tag_47\n      jump\t// in\n    tag_74:\n        /* \"#utility.yul\":1826:2180   */\n      swap4\n      swap3\n      pop\n      pop\n      pop\n      jump\t// out\n\n    auxdata: 0xa26469706673582212207112affdfa459082b86fc802a7158636651e73b0190e5d014ee7ede5640dade964736f6c63430008170033\n}\n",
				"bytecode": {
					"linkReferences": {},
					"object": "60806040525f805f6101000a81548160ff021916908360ff16021790555060015f60016101000a81548160ff021916908360ff160217905550348015610043575f80fd5b50610302806100515f395ff3fe608060405234801561000f575f80fd5b5060043610610055575f3560e01c80630249073e1461005957806313dcdd26146100775780634d87ffaa146100955780636d4478b9146100b4578063ebe88a2b146100d2575b5f80fd5b6100616100dc565b60405161006e91906101ce565b60405180910390f35b61007f6100ee565b60405161008c9190610201565b60405180910390f35b61009d610134565b6040516100ab9291906102a5565b60405180910390f35b6100bc610177565b6040516100c991906101ce565b60405180910390f35b6100da610187565b005b5f60019054906101000a900460ff1681565b5f6001600381111561010357610102610232565b5b5f60029054906101000a900460ff16600381111561012457610123610232565b5b1461012d575f80fd5b6001905090565b5f805f8060026101000a81548160ff0219169083600381111561015a57610159610232565b5b0217905550425f60029054906101000a900460ff16915091509091565b5f8054906101000a900460ff1681565b60015f60026101000a81548160ff021916908360038111156101ac576101ab610232565b5b0217905550565b5f60ff82169050919050565b6101c8816101b3565b82525050565b5f6020820190506101e15f8301846101bf565b92915050565b5f8115159050919050565b6101fb816101e7565b82525050565b5f6020820190506102145f8301846101f2565b92915050565b5f819050919050565b61022c8161021a565b82525050565b7f4e487b71000000000000000000000000000000000000000000000000000000005f52602160045260245ffd5b600481106102705761026f610232565b5b50565b5f8190506102808261025f565b919050565b5f61028f82610273565b9050919050565b61029f81610285565b82525050565b5f6040820190506102b85f830185610223565b6102c56020830184610296565b939250505056fea26469706673582212207112affdfa459082b86fc802a7158636651e73b0190e5d014ee7ede5640dade964736f6c63430008170033",
					"opcodes": "PUSH1 0x80 PUSH1 0x40 MSTORE PUSH0 DUP1 PUSH0 PUSH2 0x100 EXP DUP2 SLOAD DUP2 PUSH1 0xFF MUL NOT AND SWAP1 DUP4 PUSH1 0xFF AND MUL OR SWAP1 SSTORE POP PUSH1 0x1 PUSH0 PUSH1 0x1 PUSH2 0x100 EXP DUP2 SLOAD DUP2 PUSH1 0xFF MUL NOT AND SWAP1 DUP4 PUSH1 0xFF AND MUL OR SWAP1 SSTORE POP CALLVALUE DUP1 ISZERO PUSH2 0x43 JUMPI PUSH0 DUP1 REVERT JUMPDEST POP PUSH2 0x302 DUP1 PUSH2 0x51 PUSH0 CODECOPY PUSH0 RETURN INVALID PUSH1 0x80 PUSH1 0x40 MSTORE CALLVALUE DUP1 ISZERO PUSH2 0xF JUMPI PUSH0 DUP1 REVERT JUMPDEST POP PUSH1 0x4 CALLDATASIZE LT PUSH2 0x55 JUMPI PUSH0 CALLDATALOAD PUSH1 0xE0 SHR DUP1 PUSH4 0x249073E EQ PUSH2 0x59 JUMPI DUP1 PUSH4 0x13DCDD26 EQ PUSH2 0x77 JUMPI DUP1 PUSH4 0x4D87FFAA EQ PUSH2 0x95 JUMPI DUP1 PUSH4 0x6D4478B9 EQ PUSH2 0xB4 JUMPI DUP1 PUSH4 0xEBE88A2B EQ PUSH2 0xD2 JUMPI JUMPDEST PUSH0 DUP1 REVERT JUMPDEST PUSH2 0x61 PUSH2 0xDC JUMP JUMPDEST PUSH1 0x40 MLOAD PUSH2 0x6E SWAP2 SWAP1 PUSH2 0x1CE JUMP JUMPDEST PUSH1 0x40 MLOAD DUP1 SWAP2 SUB SWAP1 RETURN JUMPDEST PUSH2 0x7F PUSH2 0xEE JUMP JUMPDEST PUSH1 0x40 MLOAD PUSH2 0x8C SWAP2 SWAP1 PUSH2 0x201 JUMP JUMPDEST PUSH1 0x40 MLOAD DUP1 SWAP2 SUB SWAP1 RETURN JUMPDEST PUSH2 0x9D PUSH2 0x134 JUMP JUMPDEST PUSH1 0x40 MLOAD PUSH2 0xAB SWAP3 SWAP2 SWAP1 PUSH2 0x2A5 JUMP JUMPDEST PUSH1 0x40 MLOAD DUP1 SWAP2 SUB SWAP1 RETURN JUMPDEST PUSH2 0xBC PUSH2 0x177 JUMP JUMPDEST PUSH1 0x40 MLOAD PUSH2 0xC9 SWAP2 SWAP1 PUSH2 0x1CE JUMP JUMPDEST PUSH1 0x40 MLOAD DUP1 SWAP2 SUB SWAP1 RETURN JUMPDEST PUSH2 0xDA PUSH2 0x187 JUMP JUMPDEST STOP JUMPDEST PUSH0 PUSH1 0x1 SWAP1 SLOAD SWAP1 PUSH2 0x100 EXP SWAP1 DIV PUSH1 0xFF AND DUP2 JUMP JUMPDEST PUSH0 PUSH1 0x1 PUSH1 0x3 DUP2 GT ISZERO PUSH2 0x103 JUMPI PUSH2 0x102 PUSH2 0x232 JUMP JUMPDEST JUMPDEST PUSH0 PUSH1 0x2 SWAP1 SLOAD SWAP1 PUSH2 0x100 EXP SWAP1 DIV PUSH1 0xFF AND PUSH1 0x3 DUP2 GT ISZERO PUSH2 0x124 JUMPI PUSH2 0x123 PUSH2 0x232 JUMP JUMPDEST JUMPDEST EQ PUSH2 0x12D JUMPI PUSH0 DUP1 REVERT JUMPDEST PUSH1 0x1 SWAP1 POP SWAP1 JUMP JUMPDEST PUSH0 DUP1 PUSH0 DUP1 PUSH1 0x2 PUSH2 0x100 EXP DUP2 SLOAD DUP2 PUSH1 0xFF MUL NOT AND SWAP1 DUP4 PUSH1 0x3 DUP2 GT ISZERO PUSH2 0x15A JUMPI PUSH2 0x159 PUSH2 0x232 JUMP JUMPDEST JUMPDEST MUL OR SWAP1 SSTORE POP TIMESTAMP PUSH0 PUSH1 0x2 SWAP1 SLOAD SWAP1 PUSH2 0x100 EXP SWAP1 DIV PUSH1 0xFF AND SWAP2 POP SWAP2 POP SWAP1 SWAP2 JUMP JUMPDEST PUSH0 DUP1 SLOAD SWAP1 PUSH2 0x100 EXP SWAP1 DIV PUSH1 0xFF AND DUP2 JUMP JUMPDEST PUSH1 0x1 PUSH0 PUSH1 0x2 PUSH2 0x100 EXP DUP2 SLOAD DUP2 PUSH1 0xFF MUL NOT AND SWAP1 DUP4 PUSH1 0x3 DUP2 GT ISZERO PUSH2 0x1AC JUMPI PUSH2 0x1AB PUSH2 0x232 JUMP JUMPDEST JUMPDEST MUL OR SWAP1 SSTORE POP JUMP JUMPDEST PUSH0 PUSH1 0xFF DUP3 AND SWAP1 POP SWAP2 SWAP1 POP JUMP JUMPDEST PUSH2 0x1C8 DUP2 PUSH2 0x1B3 JUMP JUMPDEST DUP3 MSTORE POP POP JUMP JUMPDEST PUSH0 PUSH1 0x20 DUP3 ADD SWAP1 POP PUSH2 0x1E1 PUSH0 DUP4 ADD DUP5 PUSH2 0x1BF JUMP JUMPDEST SWAP3 SWAP2 POP POP JUMP JUMPDEST PUSH0 DUP2 ISZERO ISZERO SWAP1 POP SWAP2 SWAP1 POP JUMP JUMPDEST PUSH2 0x1FB DUP2 PUSH2 0x1E7 JUMP JUMPDEST DUP3 MSTORE POP POP JUMP JUMPDEST PUSH0 PUSH1 0x20 DUP3 ADD SWAP1 POP PUSH2 0x214 PUSH0 DUP4 ADD DUP5 PUSH2 0x1F2 JUMP JUMPDEST SWAP3 SWAP2 POP POP JUMP JUMPDEST PUSH0 DUP2 SWAP1 POP SWAP2 SWAP1 POP JUMP JUMPDEST PUSH2 0x22C DUP2 PUSH2 0x21A JUMP JUMPDEST DUP3 MSTORE POP POP JUMP JUMPDEST PUSH32 0x4E487B7100000000000000000000000000000000000000000000000000000000 PUSH0 MSTORE PUSH1 0x21 PUSH1 0x4 MSTORE PUSH1 0x24 PUSH0 REVERT JUMPDEST PUSH1 0x4 DUP2 LT PUSH2 0x270 JUMPI PUSH2 0x26F PUSH2 0x232 JUMP JUMPDEST JUMPDEST POP JUMP JUMPDEST PUSH0 DUP2 SWAP1 POP PUSH2 0x280 DUP3 PUSH2 0x25F JUMP JUMPDEST SWAP2 SWAP1 POP JUMP JUMPDEST PUSH0 PUSH2 0x28F DUP3 PUSH2 0x273 JUMP JUMPDEST SWAP1 POP SWAP2 SWAP1 POP JUMP JUMPDEST PUSH2 0x29F DUP2 PUSH2 0x285 JUMP JUMPDEST DUP3 MSTORE POP POP JUMP JUMPDEST PUSH0 PUSH1 0x40 DUP3 ADD SWAP1 POP PUSH2 0x2B8 PUSH0 DUP4 ADD DUP6 PUSH2 0x223 JUMP JUMPDEST PUSH2 0x2C5 PUSH1 0x20 DUP4 ADD DUP5 PUSH2 0x296 JUMP JUMPDEST SWAP4 SWAP3 POP POP POP JUMP INVALID LOG2 PUSH5 0x6970667358 0x22 SLT KECCAK256 PUSH18 0x12AFFDFA459082B86FC802A7158636651E73 0xB0 NOT 0xE 0x5D ADD 0x4E 0xE7 0xED 0xE5 PUSH5 0xDADE96473 PUSH16 0x6C634300081700330000000000000000 "
				},
				"gasEstimates": {
					"creation": {
						"codeDepositCost": "154000",
						"executionCost": "48781",
						"totalCost": "202781"
					},
					"external": {
						"applied()": "2507",
						"applyloan()": "27081",
						"inprogress()": "2494",
						"isinprogress()": "2598",
						"progressloan()": "24545"
					}
				},
				"methodIdentifiers": {
					"applied()": "6d4478b9",
					"applyloan()": "4d87ffaa",
					"inprogress()": "0249073e",
					"isinprogress()": "13dcdd26",
					"progressloan()": "ebe88a2b"
				}
			},
			"storageLayout": {
				"storage": [
					{
						"astId": 4,
						"contract": "contracts/enums.sol:Enums",
						"label": "applied",
						"offset": 0,
						"slot": "0",
						"type": "t_uint8"
					},
					{
						"astId": 7,
						"contract": "contracts/enums.sol:Enums",
						"label": "inprogress",
						"offset": 1,
						"slot": "0",
						"type": "t_uint8"
					},
					{
						"astId": 15,
						"contract": "contracts/enums.sol:Enums",
						"label": "gokulloanstatus",
						"offset": 2,
						"slot": "0",
						"type": "t_enum(loanstatus)12"
					}
				],
				"types": {
					"t_enum(loanstatus)12": {
						"encoding": "inplace",
						"label": "enum Enums.loanstatus",
						"numberOfBytes": "1"
					},
					"t_uint8": {
						"encoding": "inplace",
						"label": "uint8",
						"numberOfBytes": "1"
					}
				}
			},
			"userdoc": {
				"kind": "user",
				"methods": {},
				"version": 1
			}
		}
	}
}