{
	"data": {
		"bytecode": {
			"linkReferences": {},
			"object": "60806040526209c80b60005534801561001757600080fd5b50610100806100276000396000f3006080604052600436106049576000357c0100000000000000000000000000000000000000000000000000000000900463ffffffff16806396b3e48214604e578063a5f3c23b146076575b600080fd5b348015605957600080fd5b50606060be565b6040518082815260200191505060405180910390f35b348015608157600080fd5b5060a8600480360381019080803590602001909291908035906020019092919050505060c7565b6040518082815260200191505060405180910390f35b60008054905090565b60008183019050929150505600a165627a7a7230582001bbedada99babf4a54917128a0454aa2da74541024dcc9701d0b37498c913850029",
			"opcodes": "PUSH1 0x80 PUSH1 0x40 MSTORE PUSH3 0x9C80B PUSH1 0x0 SSTORE CALLVALUE DUP1 ISZERO PUSH2 0x17 JUMPI PUSH1 0x0 DUP1 REVERT JUMPDEST POP PUSH2 0x100 DUP1 PUSH2 0x27 PUSH1 0x0 CODECOPY PUSH1 0x0 RETURN STOP PUSH1 0x80 PUSH1 0x40 MSTORE PUSH1 0x4 CALLDATASIZE LT PUSH1 0x49 JUMPI PUSH1 0x0 CALLDATALOAD PUSH29 0x100000000000000000000000000000000000000000000000000000000 SWAP1 DIV PUSH4 0xFFFFFFFF AND DUP1 PUSH4 0x96B3E482 EQ PUSH1 0x4E JUMPI DUP1 PUSH4 0xA5F3C23B EQ PUSH1 0x76 JUMPI JUMPDEST PUSH1 0x0 DUP1 REVERT JUMPDEST CALLVALUE DUP1 ISZERO PUSH1 0x59 JUMPI PUSH1 0x0 DUP1 REVERT JUMPDEST POP PUSH1 0x60 PUSH1 0xBE JUMP JUMPDEST PUSH1 0x40 MLOAD DUP1 DUP3 DUP2 MSTORE PUSH1 0x20 ADD SWAP2 POP POP PUSH1 0x40 MLOAD DUP1 SWAP2 SUB SWAP1 RETURN JUMPDEST CALLVALUE DUP1 ISZERO PUSH1 0x81 JUMPI PUSH1 0x0 DUP1 REVERT JUMPDEST POP PUSH1 0xA8 PUSH1 0x4 DUP1 CALLDATASIZE SUB DUP2 ADD SWAP1 DUP1 DUP1 CALLDATALOAD SWAP1 PUSH1 0x20 ADD SWAP1 SWAP3 SWAP2 SWAP1 DUP1 CALLDATALOAD SWAP1 PUSH1 0x20 ADD SWAP1 SWAP3 SWAP2 SWAP1 POP POP POP PUSH1 0xC7 JUMP JUMPDEST PUSH1 0x40 MLOAD DUP1 DUP3 DUP2 MSTORE PUSH1 0x20 ADD SWAP2 POP POP PUSH1 0x40 MLOAD DUP1 SWAP2 SUB SWAP1 RETURN JUMPDEST PUSH1 0x0 DUP1 SLOAD SWAP1 POP SWAP1 JUMP JUMPDEST PUSH1 0x0 DUP2 DUP4 ADD SWAP1 POP SWAP3 SWAP2 POP POP JUMP STOP LOG1 PUSH6 0x627A7A723058 KECCAK256 ADD 0xbb 0xed 0xad 0xa9 SWAP12 0xab DELEGATECALL 0xa5 0x49 OR SLT DUP11 DIV SLOAD 0xaa 0x2d 0xa7 GASLIMIT COINBASE MUL 0x4d 0xcc SWAP8 ADD 0xd0 0xb3 PUSH21 0x98C913850029000000000000000000000000000000 "
		},
		"gasEstimates": {
			"creation": {
				"codeDepositCost": "51200",
				"executionCost": "20105",
				"totalCost": "71305"
			},
			"external": {
				"add(int256,int256)": "320",
				"pinc()": "402"
			}
		},
		"methodIdentifiers": {
			"add(int256,int256)": "a5f3c23b",
			"pinc()": "96b3e482"
		}
	},
	"abi": [
		{
			"constant": true,
			"inputs": [],
			"name": "pinc",
			"outputs": [
				{
					"name": "",
					"type": "uint256"
				}
			],
			"payable": false,
			"stateMutability": "view",
			"type": "function"
		},
		{
			"constant": true,
			"inputs": [
				{
					"name": "_a",
					"type": "int256"
				},
				{
					"name": "_b",
					"type": "int256"
				}
			],
			"name": "add",
			"outputs": [
				{
					"name": "",
					"type": "int256"
				}
			],
			"payable": false,
			"stateMutability": "view",
			"type": "function"
		}
	]
}