{
	"data": {
		"bytecode": {
			"linkReferences": {},
			"object": "608060405234801561000f575f80fd5b506102798061001d5f395ff3fe608060405260043610610028575f3560e01c80631b3f4e071461002c578063c6b69b7f14610056575b5f80fd5b348015610037575f80fd5b50610040610060565b60405161004d919061014a565b60405180910390f35b61005e610067565b005b5f47905090565b5f73b5465ed8ecd4f79dd4be10a7c8e7a50664e5eeeb73ffffffffffffffffffffffffffffffffffffffff16612710670de0b6b3a76400006040516100ab906101b7565b5f60405180830381858888f193505050503d805f81146100e6576040519150601f19603f3d011682016040523d82523d5f602084013e6100eb565b606091505b505090508061012f576040517f08c379a000000000000000000000000000000000000000000000000000000000815260040161012690610225565b60405180910390fd5b50565b5f819050919050565b61014481610132565b82525050565b5f60208201905061015d5f83018461013b565b92915050565b5f81905092915050565b7f43616c6c696e67207669612043616c6c2066756e6374696f6e000000000000005f82015250565b5f6101a1601983610163565b91506101ac8261016d565b601982019050919050565b5f6101c182610195565b9150819050919050565b5f82825260208201905092915050565b7f5472616e666572204661696c65640000000000000000000000000000000000005f82015250565b5f61020f600e836101cb565b915061021a826101db565b602082019050919050565b5f6020820190508181035f83015261023c81610203565b905091905056fea2646970667358221220ff6e170ae6356b313a0c535ff6e30d6adf08eaa963bc3c17687415aeb7804aef64736f6c63430008170033",
			"opcodes": "PUSH1 0x80 PUSH1 0x40 MSTORE CALLVALUE DUP1 ISZERO PUSH2 0xF JUMPI PUSH0 DUP1 REVERT JUMPDEST POP PUSH2 0x279 DUP1 PUSH2 0x1D PUSH0 CODECOPY PUSH0 RETURN INVALID PUSH1 0x80 PUSH1 0x40 MSTORE PUSH1 0x4 CALLDATASIZE LT PUSH2 0x28 JUMPI PUSH0 CALLDATALOAD PUSH1 0xE0 SHR DUP1 PUSH4 0x1B3F4E07 EQ PUSH2 0x2C JUMPI DUP1 PUSH4 0xC6B69B7F EQ PUSH2 0x56 JUMPI JUMPDEST PUSH0 DUP1 REVERT JUMPDEST CALLVALUE DUP1 ISZERO PUSH2 0x37 JUMPI PUSH0 DUP1 REVERT JUMPDEST POP PUSH2 0x40 PUSH2 0x60 JUMP JUMPDEST PUSH1 0x40 MLOAD PUSH2 0x4D SWAP2 SWAP1 PUSH2 0x14A JUMP JUMPDEST PUSH1 0x40 MLOAD DUP1 SWAP2 SUB SWAP1 RETURN JUMPDEST PUSH2 0x5E PUSH2 0x67 JUMP JUMPDEST STOP JUMPDEST PUSH0 SELFBALANCE SWAP1 POP SWAP1 JUMP JUMPDEST PUSH0 PUSH20 0xB5465ED8ECD4F79DD4BE10A7C8E7A50664E5EEEB PUSH20 0xFFFFFFFFFFFFFFFFFFFFFFFFFFFFFFFFFFFFFFFF AND PUSH2 0x2710 PUSH8 0xDE0B6B3A7640000 PUSH1 0x40 MLOAD PUSH2 0xAB SWAP1 PUSH2 0x1B7 JUMP JUMPDEST PUSH0 PUSH1 0x40 MLOAD DUP1 DUP4 SUB DUP2 DUP6 DUP9 DUP9 CALL SWAP4 POP POP POP POP RETURNDATASIZE DUP1 PUSH0 DUP2 EQ PUSH2 0xE6 JUMPI PUSH1 0x40 MLOAD SWAP2 POP PUSH1 0x1F NOT PUSH1 0x3F RETURNDATASIZE ADD AND DUP3 ADD PUSH1 0x40 MSTORE RETURNDATASIZE DUP3 MSTORE RETURNDATASIZE PUSH0 PUSH1 0x20 DUP5 ADD RETURNDATACOPY PUSH2 0xEB JUMP JUMPDEST PUSH1 0x60 SWAP2 POP JUMPDEST POP POP SWAP1 POP DUP1 PUSH2 0x12F JUMPI PUSH1 0x40 MLOAD PUSH32 0x8C379A000000000000000000000000000000000000000000000000000000000 DUP2 MSTORE PUSH1 0x4 ADD PUSH2 0x126 SWAP1 PUSH2 0x225 JUMP JUMPDEST PUSH1 0x40 MLOAD DUP1 SWAP2 SUB SWAP1 REVERT JUMPDEST POP JUMP JUMPDEST PUSH0 DUP2 SWAP1 POP SWAP2 SWAP1 POP JUMP JUMPDEST PUSH2 0x144 DUP2 PUSH2 0x132 JUMP JUMPDEST DUP3 MSTORE POP POP JUMP JUMPDEST PUSH0 PUSH1 0x20 DUP3 ADD SWAP1 POP PUSH2 0x15D PUSH0 DUP4 ADD DUP5 PUSH2 0x13B JUMP JUMPDEST SWAP3 SWAP2 POP POP JUMP JUMPDEST PUSH0 DUP2 SWAP1 POP SWAP3 SWAP2 POP POP JUMP JUMPDEST PUSH32 0x43616C6C696E67207669612043616C6C2066756E6374696F6E00000000000000 PUSH0 DUP3 ADD MSTORE POP JUMP JUMPDEST PUSH0 PUSH2 0x1A1 PUSH1 0x19 DUP4 PUSH2 0x163 JUMP JUMPDEST SWAP2 POP PUSH2 0x1AC DUP3 PUSH2 0x16D JUMP JUMPDEST PUSH1 0x19 DUP3 ADD SWAP1 POP SWAP2 SWAP1 POP JUMP JUMPDEST PUSH0 PUSH2 0x1C1 DUP3 PUSH2 0x195 JUMP JUMPDEST SWAP2 POP DUP2 SWAP1 POP SWAP2 SWAP1 POP JUMP JUMPDEST PUSH0 DUP3 DUP3 MSTORE PUSH1 0x20 DUP3 ADD SWAP1 POP SWAP3 SWAP2 POP POP JUMP JUMPDEST PUSH32 0x5472616E666572204661696C6564000000000000000000000000000000000000 PUSH0 DUP3 ADD MSTORE POP JUMP JUMPDEST PUSH0 PUSH2 0x20F PUSH1 0xE DUP4 PUSH2 0x1CB JUMP JUMPDEST SWAP2 POP PUSH2 0x21A DUP3 PUSH2 0x1DB JUMP JUMPDEST PUSH1 0x20 DUP3 ADD SWAP1 POP SWAP2 SWAP1 POP JUMP JUMPDEST PUSH0 PUSH1 0x20 DUP3 ADD SWAP1 POP DUP2 DUP2 SUB PUSH0 DUP4 ADD MSTORE PUSH2 0x23C DUP2 PUSH2 0x203 JUMP JUMPDEST SWAP1 POP SWAP2 SWAP1 POP JUMP INVALID LOG2 PUSH5 0x6970667358 0x22 SLT KECCAK256 SELFDESTRUCT PUSH15 0x170AE6356B313A0C535FF6E30D6ADF ADDMOD 0xEA 0xA9 PUSH4 0xBC3C1768 PUSH21 0x15AEB7804AEF64736F6C6343000817003300000000 "
		},
		"gasEstimates": {
			"creation": {
				"codeDepositCost": "126600",
				"executionCost": "169",
				"totalCost": "126769"
			},
			"external": {
				"getbal()": "312",
				"sendEthCall()": "infinite"
			}
		},
		"methodIdentifiers": {
			"getbal()": "1b3f4e07",
			"sendEthCall()": "c6b69b7f"
		}
	},
	"abi": [
		{
			"inputs": [],
			"name": "getbal",
			"outputs": [
				{
					"internalType": "uint256",
					"name": "",
					"type": "uint256"
				}
			],
			"stateMutability": "view",
			"type": "function"
		},
		{
			"inputs": [],
			"name": "sendEthCall",
			"outputs": [],
			"stateMutability": "payable",
			"type": "function"
		}
	]
}