{
	"data": {
		"bytecode": {
			"linkReferences": {},
			"object": "608060405234801561000f575f80fd5b5061058d8061001d5f395ff3fe608060405234801561000f575f80fd5b5060043610610034575f3560e01c8063b0816def14610038578063b6854a2114610042575b5f80fd5b610040610062565b005b61004a6100e7565b60405161005993929190610225565b60405180910390f35b6040518060400160405280600581526020017f476f6b756c0000000000000000000000000000000000000000000000000000008152505f800190816100a79190610488565b50600e5f6001018190555060165f600201819055505f600301607b908060018154018082558091505060019003905f5260205f20015f9091909190915055565b5f805f0180546100f6906102bb565b80601f0160208091040260200160405190810160405280929190818152602001828054610122906102bb565b801561016d5780601f106101445761010080835404028352916020019161016d565b820191905f5260205f20905b81548152906001019060200180831161015057829003601f168201915b5050505050908060010154908060020154905083565b5f81519050919050565b5f82825260208201905092915050565b5f5b838110156101ba57808201518184015260208101905061019f565b5f8484015250505050565b5f601f19601f8301169050919050565b5f6101df82610183565b6101e9818561018d565b93506101f981856020860161019d565b610202816101c5565b840191505092915050565b5f819050919050565b61021f8161020d565b82525050565b5f6060820190508181035f83015261023d81866101d5565b905061024c6020830185610216565b6102596040830184610216565b949350505050565b7f4e487b71000000000000000000000000000000000000000000000000000000005f52604160045260245ffd5b7f4e487b71000000000000000000000000000000000000000000000000000000005f52602260045260245ffd5b5f60028204905060018216806102d257607f821691505b6020821081036102e5576102e461028e565b5b50919050565b5f819050815f5260205f209050919050565b5f6020601f8301049050919050565b5f82821b905092915050565b5f600883026103477fffffffffffffffffffffffffffffffffffffffffffffffffffffffffffffffff8261030c565b610351868361030c565b95508019841693508086168417925050509392505050565b5f819050919050565b5f61038c6103876103828461020d565b610369565b61020d565b9050919050565b5f819050919050565b6103a583610372565b6103b96103b182610393565b848454610318565b825550505050565b5f90565b6103cd6103c1565b6103d881848461039c565b505050565b5b818110156103fb576103f05f826103c5565b6001810190506103de565b5050565b601f82111561044057610411816102eb565b61041a846102fd565b81016020851015610429578190505b61043d610435856102fd565b8301826103dd565b50505b505050565b5f82821c905092915050565b5f6104605f1984600802610445565b1980831691505092915050565b5f6104788383610451565b9150826002028217905092915050565b61049182610183565b67ffffffffffffffff8111156104aa576104a9610261565b5b6104b482546102bb565b6104bf8282856103ff565b5f60209050601f8311600181146104f0575f84156104de578287015190505b6104e8858261046d565b86555061054f565b601f1984166104fe866102eb565b5f5b8281101561052557848901518255600182019150602085019450602081019050610500565b86831015610542578489015161053e601f891682610451565b8355505b6001600288020188555050505b50505050505056fea2646970667358221220ab624174bc5ab58a66dab7e09253438e85df5a22c13deb3ced5279fd61ac90bc64736f6c63430008170033",
			"opcodes": "PUSH1 0x80 PUSH1 0x40 MSTORE CALLVALUE DUP1 ISZERO PUSH2 0xF JUMPI PUSH0 DUP1 REVERT JUMPDEST POP PUSH2 0x58D DUP1 PUSH2 0x1D PUSH0 CODECOPY PUSH0 RETURN INVALID PUSH1 0x80 PUSH1 0x40 MSTORE CALLVALUE DUP1 ISZERO PUSH2 0xF JUMPI PUSH0 DUP1 REVERT JUMPDEST POP PUSH1 0x4 CALLDATASIZE LT PUSH2 0x34 JUMPI PUSH0 CALLDATALOAD PUSH1 0xE0 SHR DUP1 PUSH4 0xB0816DEF EQ PUSH2 0x38 JUMPI DUP1 PUSH4 0xB6854A21 EQ PUSH2 0x42 JUMPI JUMPDEST PUSH0 DUP1 REVERT JUMPDEST PUSH2 0x40 PUSH2 0x62 JUMP JUMPDEST STOP JUMPDEST PUSH2 0x4A PUSH2 0xE7 JUMP JUMPDEST PUSH1 0x40 MLOAD PUSH2 0x59 SWAP4 SWAP3 SWAP2 SWAP1 PUSH2 0x225 JUMP JUMPDEST PUSH1 0x40 MLOAD DUP1 SWAP2 SUB SWAP1 RETURN JUMPDEST PUSH1 0x40 MLOAD DUP1 PUSH1 0x40 ADD PUSH1 0x40 MSTORE DUP1 PUSH1 0x5 DUP2 MSTORE PUSH1 0x20 ADD PUSH32 0x476F6B756C000000000000000000000000000000000000000000000000000000 DUP2 MSTORE POP PUSH0 DUP1 ADD SWAP1 DUP2 PUSH2 0xA7 SWAP2 SWAP1 PUSH2 0x488 JUMP JUMPDEST POP PUSH1 0xE PUSH0 PUSH1 0x1 ADD DUP2 SWAP1 SSTORE POP PUSH1 0x16 PUSH0 PUSH1 0x2 ADD DUP2 SWAP1 SSTORE POP PUSH0 PUSH1 0x3 ADD PUSH1 0x7B SWAP1 DUP1 PUSH1 0x1 DUP2 SLOAD ADD DUP1 DUP3 SSTORE DUP1 SWAP2 POP POP PUSH1 0x1 SWAP1 SUB SWAP1 PUSH0 MSTORE PUSH1 0x20 PUSH0 KECCAK256 ADD PUSH0 SWAP1 SWAP2 SWAP1 SWAP2 SWAP1 SWAP2 POP SSTORE JUMP JUMPDEST PUSH0 DUP1 PUSH0 ADD DUP1 SLOAD PUSH2 0xF6 SWAP1 PUSH2 0x2BB JUMP JUMPDEST DUP1 PUSH1 0x1F ADD PUSH1 0x20 DUP1 SWAP2 DIV MUL PUSH1 0x20 ADD PUSH1 0x40 MLOAD SWAP1 DUP2 ADD PUSH1 0x40 MSTORE DUP1 SWAP3 SWAP2 SWAP1 DUP2 DUP2 MSTORE PUSH1 0x20 ADD DUP3 DUP1 SLOAD PUSH2 0x122 SWAP1 PUSH2 0x2BB JUMP JUMPDEST DUP1 ISZERO PUSH2 0x16D JUMPI DUP1 PUSH1 0x1F LT PUSH2 0x144 JUMPI PUSH2 0x100 DUP1 DUP4 SLOAD DIV MUL DUP4 MSTORE SWAP2 PUSH1 0x20 ADD SWAP2 PUSH2 0x16D JUMP JUMPDEST DUP3 ADD SWAP2 SWAP1 PUSH0 MSTORE PUSH1 0x20 PUSH0 KECCAK256 SWAP1 JUMPDEST DUP2 SLOAD DUP2 MSTORE SWAP1 PUSH1 0x1 ADD SWAP1 PUSH1 0x20 ADD DUP1 DUP4 GT PUSH2 0x150 JUMPI DUP3 SWAP1 SUB PUSH1 0x1F AND DUP3 ADD SWAP2 JUMPDEST POP POP POP POP POP SWAP1 DUP1 PUSH1 0x1 ADD SLOAD SWAP1 DUP1 PUSH1 0x2 ADD SLOAD SWAP1 POP DUP4 JUMP JUMPDEST PUSH0 DUP2 MLOAD SWAP1 POP SWAP2 SWAP1 POP JUMP JUMPDEST PUSH0 DUP3 DUP3 MSTORE PUSH1 0x20 DUP3 ADD SWAP1 POP SWAP3 SWAP2 POP POP JUMP JUMPDEST PUSH0 JUMPDEST DUP4 DUP2 LT ISZERO PUSH2 0x1BA JUMPI DUP1 DUP3 ADD MLOAD DUP2 DUP5 ADD MSTORE PUSH1 0x20 DUP2 ADD SWAP1 POP PUSH2 0x19F JUMP JUMPDEST PUSH0 DUP5 DUP5 ADD MSTORE POP POP POP POP JUMP JUMPDEST PUSH0 PUSH1 0x1F NOT PUSH1 0x1F DUP4 ADD AND SWAP1 POP SWAP2 SWAP1 POP JUMP JUMPDEST PUSH0 PUSH2 0x1DF DUP3 PUSH2 0x183 JUMP JUMPDEST PUSH2 0x1E9 DUP2 DUP6 PUSH2 0x18D JUMP JUMPDEST SWAP4 POP PUSH2 0x1F9 DUP2 DUP6 PUSH1 0x20 DUP7 ADD PUSH2 0x19D JUMP JUMPDEST PUSH2 0x202 DUP2 PUSH2 0x1C5 JUMP JUMPDEST DUP5 ADD SWAP2 POP POP SWAP3 SWAP2 POP POP JUMP JUMPDEST PUSH0 DUP2 SWAP1 POP SWAP2 SWAP1 POP JUMP JUMPDEST PUSH2 0x21F DUP2 PUSH2 0x20D JUMP JUMPDEST DUP3 MSTORE POP POP JUMP JUMPDEST PUSH0 PUSH1 0x60 DUP3 ADD SWAP1 POP DUP2 DUP2 SUB PUSH0 DUP4 ADD MSTORE PUSH2 0x23D DUP2 DUP7 PUSH2 0x1D5 JUMP JUMPDEST SWAP1 POP PUSH2 0x24C PUSH1 0x20 DUP4 ADD DUP6 PUSH2 0x216 JUMP JUMPDEST PUSH2 0x259 PUSH1 0x40 DUP4 ADD DUP5 PUSH2 0x216 JUMP JUMPDEST SWAP5 SWAP4 POP POP POP POP JUMP JUMPDEST PUSH32 0x4E487B7100000000000000000000000000000000000000000000000000000000 PUSH0 MSTORE PUSH1 0x41 PUSH1 0x4 MSTORE PUSH1 0x24 PUSH0 REVERT JUMPDEST PUSH32 0x4E487B7100000000000000000000000000000000000000000000000000000000 PUSH0 MSTORE PUSH1 0x22 PUSH1 0x4 MSTORE PUSH1 0x24 PUSH0 REVERT JUMPDEST PUSH0 PUSH1 0x2 DUP3 DIV SWAP1 POP PUSH1 0x1 DUP3 AND DUP1 PUSH2 0x2D2 JUMPI PUSH1 0x7F DUP3 AND SWAP2 POP JUMPDEST PUSH1 0x20 DUP3 LT DUP2 SUB PUSH2 0x2E5 JUMPI PUSH2 0x2E4 PUSH2 0x28E JUMP JUMPDEST JUMPDEST POP SWAP2 SWAP1 POP JUMP JUMPDEST PUSH0 DUP2 SWAP1 POP DUP2 PUSH0 MSTORE PUSH1 0x20 PUSH0 KECCAK256 SWAP1 POP SWAP2 SWAP1 POP JUMP JUMPDEST PUSH0 PUSH1 0x20 PUSH1 0x1F DUP4 ADD DIV SWAP1 POP SWAP2 SWAP1 POP JUMP JUMPDEST PUSH0 DUP3 DUP3 SHL SWAP1 POP SWAP3 SWAP2 POP POP JUMP JUMPDEST PUSH0 PUSH1 0x8 DUP4 MUL PUSH2 0x347 PUSH32 0xFFFFFFFFFFFFFFFFFFFFFFFFFFFFFFFFFFFFFFFFFFFFFFFFFFFFFFFFFFFFFFFF DUP3 PUSH2 0x30C JUMP JUMPDEST PUSH2 0x351 DUP7 DUP4 PUSH2 0x30C JUMP JUMPDEST SWAP6 POP DUP1 NOT DUP5 AND SWAP4 POP DUP1 DUP7 AND DUP5 OR SWAP3 POP POP POP SWAP4 SWAP3 POP POP POP JUMP JUMPDEST PUSH0 DUP2 SWAP1 POP SWAP2 SWAP1 POP JUMP JUMPDEST PUSH0 PUSH2 0x38C PUSH2 0x387 PUSH2 0x382 DUP5 PUSH2 0x20D JUMP JUMPDEST PUSH2 0x369 JUMP JUMPDEST PUSH2 0x20D JUMP JUMPDEST SWAP1 POP SWAP2 SWAP1 POP JUMP JUMPDEST PUSH0 DUP2 SWAP1 POP SWAP2 SWAP1 POP JUMP JUMPDEST PUSH2 0x3A5 DUP4 PUSH2 0x372 JUMP JUMPDEST PUSH2 0x3B9 PUSH2 0x3B1 DUP3 PUSH2 0x393 JUMP JUMPDEST DUP5 DUP5 SLOAD PUSH2 0x318 JUMP JUMPDEST DUP3 SSTORE POP POP POP POP JUMP JUMPDEST PUSH0 SWAP1 JUMP JUMPDEST PUSH2 0x3CD PUSH2 0x3C1 JUMP JUMPDEST PUSH2 0x3D8 DUP2 DUP5 DUP5 PUSH2 0x39C JUMP JUMPDEST POP POP POP JUMP JUMPDEST JUMPDEST DUP2 DUP2 LT ISZERO PUSH2 0x3FB JUMPI PUSH2 0x3F0 PUSH0 DUP3 PUSH2 0x3C5 JUMP JUMPDEST PUSH1 0x1 DUP2 ADD SWAP1 POP PUSH2 0x3DE JUMP JUMPDEST POP POP JUMP JUMPDEST PUSH1 0x1F DUP3 GT ISZERO PUSH2 0x440 JUMPI PUSH2 0x411 DUP2 PUSH2 0x2EB JUMP JUMPDEST PUSH2 0x41A DUP5 PUSH2 0x2FD JUMP JUMPDEST DUP2 ADD PUSH1 0x20 DUP6 LT ISZERO PUSH2 0x429 JUMPI DUP2 SWAP1 POP JUMPDEST PUSH2 0x43D PUSH2 0x435 DUP6 PUSH2 0x2FD JUMP JUMPDEST DUP4 ADD DUP3 PUSH2 0x3DD JUMP JUMPDEST POP POP JUMPDEST POP POP POP JUMP JUMPDEST PUSH0 DUP3 DUP3 SHR SWAP1 POP SWAP3 SWAP2 POP POP JUMP JUMPDEST PUSH0 PUSH2 0x460 PUSH0 NOT DUP5 PUSH1 0x8 MUL PUSH2 0x445 JUMP JUMPDEST NOT DUP1 DUP4 AND SWAP2 POP POP SWAP3 SWAP2 POP POP JUMP JUMPDEST PUSH0 PUSH2 0x478 DUP4 DUP4 PUSH2 0x451 JUMP JUMPDEST SWAP2 POP DUP3 PUSH1 0x2 MUL DUP3 OR SWAP1 POP SWAP3 SWAP2 POP POP JUMP JUMPDEST PUSH2 0x491 DUP3 PUSH2 0x183 JUMP JUMPDEST PUSH8 0xFFFFFFFFFFFFFFFF DUP2 GT ISZERO PUSH2 0x4AA JUMPI PUSH2 0x4A9 PUSH2 0x261 JUMP JUMPDEST JUMPDEST PUSH2 0x4B4 DUP3 SLOAD PUSH2 0x2BB JUMP JUMPDEST PUSH2 0x4BF DUP3 DUP3 DUP6 PUSH2 0x3FF JUMP JUMPDEST PUSH0 PUSH1 0x20 SWAP1 POP PUSH1 0x1F DUP4 GT PUSH1 0x1 DUP2 EQ PUSH2 0x4F0 JUMPI PUSH0 DUP5 ISZERO PUSH2 0x4DE JUMPI DUP3 DUP8 ADD MLOAD SWAP1 POP JUMPDEST PUSH2 0x4E8 DUP6 DUP3 PUSH2 0x46D JUMP JUMPDEST DUP7 SSTORE POP PUSH2 0x54F JUMP JUMPDEST PUSH1 0x1F NOT DUP5 AND PUSH2 0x4FE DUP7 PUSH2 0x2EB JUMP JUMPDEST PUSH0 JUMPDEST DUP3 DUP2 LT ISZERO PUSH2 0x525 JUMPI DUP5 DUP10 ADD MLOAD DUP3 SSTORE PUSH1 0x1 DUP3 ADD SWAP2 POP PUSH1 0x20 DUP6 ADD SWAP5 POP PUSH1 0x20 DUP2 ADD SWAP1 POP PUSH2 0x500 JUMP JUMPDEST DUP7 DUP4 LT ISZERO PUSH2 0x542 JUMPI DUP5 DUP10 ADD MLOAD PUSH2 0x53E PUSH1 0x1F DUP10 AND DUP3 PUSH2 0x451 JUMP JUMPDEST DUP4 SSTORE POP JUMPDEST PUSH1 0x1 PUSH1 0x2 DUP9 MUL ADD DUP9 SSTORE POP POP POP JUMPDEST POP POP POP POP POP POP JUMP INVALID LOG2 PUSH5 0x6970667358 0x22 SLT KECCAK256 0xAB PUSH3 0x4174BC GAS 0xB5 DUP11 PUSH7 0xDAB7E09253438E DUP6 0xDF GAS 0x22 0xC1 RETURNDATASIZE 0xEB EXTCODECOPY 0xED MSTORE PUSH26 0xFD61AC90BC64736F6C6343000817003300000000000000000000 "
		},
		"gasEstimates": {
			"creation": {
				"codeDepositCost": "284200",
				"executionCost": "322",
				"totalCost": "284522"
			},
			"external": {
				"addEmployee()": "infinite",
				"variable()": "infinite"
			}
		},
		"methodIdentifiers": {
			"addEmployee()": "b0816def",
			"variable()": "b6854a21"
		}
	},
	"abi": [
		{
			"inputs": [],
			"name": "addEmployee",
			"outputs": [],
			"stateMutability": "nonpayable",
			"type": "function"
		},
		{
			"inputs": [],
			"name": "variable",
			"outputs": [
				{
					"internalType": "string",
					"name": "Name",
					"type": "string"
				},
				{
					"internalType": "uint256",
					"name": "empId",
					"type": "uint256"
				},
				{
					"internalType": "uint256",
					"name": "age",
					"type": "uint256"
				}
			],
			"stateMutability": "view",
			"type": "function"
		}
	]
}