{
	"data": {
		"bytecode": {
			"linkReferences": {},
			"object": "608060405273ddaad340b0f1ef65169ae5e41a8b10776a75482d5f806101000a81548173ffffffffffffffffffffffffffffffffffffffff021916908373ffffffffffffffffffffffffffffffffffffffff160217905550348015610062575f80fd5b50610337806100705f395ff3fe608060405234801561000f575f80fd5b5060043610610029575f3560e01c80635f4319921461002d575b5f80fd5b61003561004b565b604051610042919061016b565b60405180910390f35b60605f8054906101000a900473ffffffffffffffffffffffffffffffffffffffff1673ffffffffffffffffffffffffffffffffffffffff1663838141156040518163ffffffff1660e01b81526004015f60405180830381865afa1580156100b4573d5f803e3d5ffd5b505050506040513d5f823e3d601f19601f820116820180604052508101906100dc91906102ba565b905090565b5f81519050919050565b5f82825260208201905092915050565b5f5b838110156101185780820151818401526020810190506100fd565b5f8484015250505050565b5f601f19601f8301169050919050565b5f61013d826100e1565b61014781856100eb565b93506101578185602086016100fb565b61016081610123565b840191505092915050565b5f6020820190508181035f8301526101838184610133565b905092915050565b5f604051905090565b5f80fd5b5f80fd5b5f80fd5b5f80fd5b7f4e487b71000000000000000000000000000000000000000000000000000000005f52604160045260245ffd5b6101da82610123565b810181811067ffffffffffffffff821117156101f9576101f86101a4565b5b80604052505050565b5f61020b61018b565b905061021782826101d1565b919050565b5f67ffffffffffffffff821115610236576102356101a4565b5b61023f82610123565b9050602081019050919050565b5f61025e6102598461021c565b610202565b90508281526020810184848401111561027a576102796101a0565b5b6102858482856100fb565b509392505050565b5f82601f8301126102a1576102a061019c565b5b81516102b184826020860161024c565b91505092915050565b5f602082840312156102cf576102ce610194565b5b5f82015167ffffffffffffffff8111156102ec576102eb610198565b5b6102f88482850161028d565b9150509291505056fea2646970667358221220a0ea8b8433758a6850a54c4b59f95642145df93b4cfe575506e70784041a4d6164736f6c63430008170033",
			"opcodes": "PUSH1 0x80 PUSH1 0x40 MSTORE PUSH20 0xDDAAD340B0F1EF65169AE5E41A8B10776A75482D PUSH0 DUP1 PUSH2 0x100 EXP DUP2 SLOAD DUP2 PUSH20 0xFFFFFFFFFFFFFFFFFFFFFFFFFFFFFFFFFFFFFFFF MUL NOT AND SWAP1 DUP4 PUSH20 0xFFFFFFFFFFFFFFFFFFFFFFFFFFFFFFFFFFFFFFFF AND MUL OR SWAP1 SSTORE POP CALLVALUE DUP1 ISZERO PUSH2 0x62 JUMPI PUSH0 DUP1 REVERT JUMPDEST POP PUSH2 0x337 DUP1 PUSH2 0x70 PUSH0 CODECOPY PUSH0 RETURN INVALID PUSH1 0x80 PUSH1 0x40 MSTORE CALLVALUE DUP1 ISZERO PUSH2 0xF JUMPI PUSH0 DUP1 REVERT JUMPDEST POP PUSH1 0x4 CALLDATASIZE LT PUSH2 0x29 JUMPI PUSH0 CALLDATALOAD PUSH1 0xE0 SHR DUP1 PUSH4 0x5F431992 EQ PUSH2 0x2D JUMPI JUMPDEST PUSH0 DUP1 REVERT JUMPDEST PUSH2 0x35 PUSH2 0x4B JUMP JUMPDEST PUSH1 0x40 MLOAD PUSH2 0x42 SWAP2 SWAP1 PUSH2 0x16B JUMP JUMPDEST PUSH1 0x40 MLOAD DUP1 SWAP2 SUB SWAP1 RETURN JUMPDEST PUSH1 0x60 PUSH0 DUP1 SLOAD SWAP1 PUSH2 0x100 EXP SWAP1 DIV PUSH20 0xFFFFFFFFFFFFFFFFFFFFFFFFFFFFFFFFFFFFFFFF AND PUSH20 0xFFFFFFFFFFFFFFFFFFFFFFFFFFFFFFFFFFFFFFFF AND PUSH4 0x83814115 PUSH1 0x40 MLOAD DUP2 PUSH4 0xFFFFFFFF AND PUSH1 0xE0 SHL DUP2 MSTORE PUSH1 0x4 ADD PUSH0 PUSH1 0x40 MLOAD DUP1 DUP4 SUB DUP2 DUP7 GAS STATICCALL ISZERO DUP1 ISZERO PUSH2 0xB4 JUMPI RETURNDATASIZE PUSH0 DUP1 RETURNDATACOPY RETURNDATASIZE PUSH0 REVERT JUMPDEST POP POP POP POP PUSH1 0x40 MLOAD RETURNDATASIZE PUSH0 DUP3 RETURNDATACOPY RETURNDATASIZE PUSH1 0x1F NOT PUSH1 0x1F DUP3 ADD AND DUP3 ADD DUP1 PUSH1 0x40 MSTORE POP DUP2 ADD SWAP1 PUSH2 0xDC SWAP2 SWAP1 PUSH2 0x2BA JUMP JUMPDEST SWAP1 POP SWAP1 JUMP JUMPDEST PUSH0 DUP2 MLOAD SWAP1 POP SWAP2 SWAP1 POP JUMP JUMPDEST PUSH0 DUP3 DUP3 MSTORE PUSH1 0x20 DUP3 ADD SWAP1 POP SWAP3 SWAP2 POP POP JUMP JUMPDEST PUSH0 JUMPDEST DUP4 DUP2 LT ISZERO PUSH2 0x118 JUMPI DUP1 DUP3 ADD MLOAD DUP2 DUP5 ADD MSTORE PUSH1 0x20 DUP2 ADD SWAP1 POP PUSH2 0xFD JUMP JUMPDEST PUSH0 DUP5 DUP5 ADD MSTORE POP POP POP POP JUMP JUMPDEST PUSH0 PUSH1 0x1F NOT PUSH1 0x1F DUP4 ADD AND SWAP1 POP SWAP2 SWAP1 POP JUMP JUMPDEST PUSH0 PUSH2 0x13D DUP3 PUSH2 0xE1 JUMP JUMPDEST PUSH2 0x147 DUP2 DUP6 PUSH2 0xEB JUMP JUMPDEST SWAP4 POP PUSH2 0x157 DUP2 DUP6 PUSH1 0x20 DUP7 ADD PUSH2 0xFB JUMP JUMPDEST PUSH2 0x160 DUP2 PUSH2 0x123 JUMP JUMPDEST DUP5 ADD SWAP2 POP POP SWAP3 SWAP2 POP POP JUMP JUMPDEST PUSH0 PUSH1 0x20 DUP3 ADD SWAP1 POP DUP2 DUP2 SUB PUSH0 DUP4 ADD MSTORE PUSH2 0x183 DUP2 DUP5 PUSH2 0x133 JUMP JUMPDEST SWAP1 POP SWAP3 SWAP2 POP POP JUMP JUMPDEST PUSH0 PUSH1 0x40 MLOAD SWAP1 POP SWAP1 JUMP JUMPDEST PUSH0 DUP1 REVERT JUMPDEST PUSH0 DUP1 REVERT JUMPDEST PUSH0 DUP1 REVERT JUMPDEST PUSH0 DUP1 REVERT JUMPDEST PUSH32 0x4E487B7100000000000000000000000000000000000000000000000000000000 PUSH0 MSTORE PUSH1 0x41 PUSH1 0x4 MSTORE PUSH1 0x24 PUSH0 REVERT JUMPDEST PUSH2 0x1DA DUP3 PUSH2 0x123 JUMP JUMPDEST DUP2 ADD DUP2 DUP2 LT PUSH8 0xFFFFFFFFFFFFFFFF DUP3 GT OR ISZERO PUSH2 0x1F9 JUMPI PUSH2 0x1F8 PUSH2 0x1A4 JUMP JUMPDEST JUMPDEST DUP1 PUSH1 0x40 MSTORE POP POP POP JUMP JUMPDEST PUSH0 PUSH2 0x20B PUSH2 0x18B JUMP JUMPDEST SWAP1 POP PUSH2 0x217 DUP3 DUP3 PUSH2 0x1D1 JUMP JUMPDEST SWAP2 SWAP1 POP JUMP JUMPDEST PUSH0 PUSH8 0xFFFFFFFFFFFFFFFF DUP3 GT ISZERO PUSH2 0x236 JUMPI PUSH2 0x235 PUSH2 0x1A4 JUMP JUMPDEST JUMPDEST PUSH2 0x23F DUP3 PUSH2 0x123 JUMP JUMPDEST SWAP1 POP PUSH1 0x20 DUP2 ADD SWAP1 POP SWAP2 SWAP1 POP JUMP JUMPDEST PUSH0 PUSH2 0x25E PUSH2 0x259 DUP5 PUSH2 0x21C JUMP JUMPDEST PUSH2 0x202 JUMP JUMPDEST SWAP1 POP DUP3 DUP2 MSTORE PUSH1 0x20 DUP2 ADD DUP5 DUP5 DUP5 ADD GT ISZERO PUSH2 0x27A JUMPI PUSH2 0x279 PUSH2 0x1A0 JUMP JUMPDEST JUMPDEST PUSH2 0x285 DUP5 DUP3 DUP6 PUSH2 0xFB JUMP JUMPDEST POP SWAP4 SWAP3 POP POP POP JUMP JUMPDEST PUSH0 DUP3 PUSH1 0x1F DUP4 ADD SLT PUSH2 0x2A1 JUMPI PUSH2 0x2A0 PUSH2 0x19C JUMP JUMPDEST JUMPDEST DUP2 MLOAD PUSH2 0x2B1 DUP5 DUP3 PUSH1 0x20 DUP7 ADD PUSH2 0x24C JUMP JUMPDEST SWAP2 POP POP SWAP3 SWAP2 POP POP JUMP JUMPDEST PUSH0 PUSH1 0x20 DUP3 DUP5 SUB SLT ISZERO PUSH2 0x2CF JUMPI PUSH2 0x2CE PUSH2 0x194 JUMP JUMPDEST JUMPDEST PUSH0 DUP3 ADD MLOAD PUSH8 0xFFFFFFFFFFFFFFFF DUP2 GT ISZERO PUSH2 0x2EC JUMPI PUSH2 0x2EB PUSH2 0x198 JUMP JUMPDEST JUMPDEST PUSH2 0x2F8 DUP5 DUP3 DUP6 ADD PUSH2 0x28D JUMP JUMPDEST SWAP2 POP POP SWAP3 SWAP2 POP POP JUMP INVALID LOG2 PUSH5 0x6970667358 0x22 SLT KECCAK256 LOG0 0xEA DUP12 DUP5 CALLER PUSH22 0x8A6850A54C4B59F95642145DF93B4CFE575506E70784 DIV BYTE 0x4D PUSH2 0x6473 PUSH16 0x6C634300081700330000000000000000 "
		},
		"gasEstimates": {
			"creation": {
				"codeDepositCost": "164600",
				"executionCost": "24472",
				"totalCost": "189072"
			},
			"external": {
				"callExternal()": "infinite"
			}
		},
		"methodIdentifiers": {
			"callExternal()": "5f431992"
		}
	},
	"abi": [
		{
			"inputs": [],
			"name": "callExternal",
			"outputs": [
				{
					"internalType": "string",
					"name": "",
					"type": "string"
				}
			],
			"stateMutability": "view",
			"type": "function"
		}
	]
}